:020000040800F2
:10000000E05A002031030008015200087D41000839
:10001000A5500008050F00080D650008000000004D
:100020000000000000000000000000007102000855
:100030009119000800000000CD020008415D000891
:100040004B0300084B0300084B0300084B03000858
:100050004B0300084B0300084B0300084B03000848
:100060004B0300084B0300084B030008011600086F
:100070000D1600084B030008191600084B03000872
:10008000251600084B0300084B0300084B0300082B
:10009000310F00084B0300084B0300084B03000816
:1000A0004B0300084B0300084B0300084B030008F8
:1000B0003D5E00084B0300084B0300084B0300089B
:1000C0004B0300084B0300084B0300084B030008D8
:1000D0004B0300084B030008456300089D630008BC
:1000E0004B0300084B0300084B0300084B030008B8
:1000F0004B0300084B0300084B03000831160008AF
:100100004B0300084B0300084B0300084B03000897
:100110004B0300084B0300084B0300084B03000887
:100120004B0300084B0300084B0300084B03000877
:100130004B0300084B0300084B0300084B03000867
:10014000690F00084B0300084B0300084B0300082D
:100150004B0300084B0300084B0300084B03000847
:100160004B0300084B0300084B0300084B03000837
:100170004B0300084B0300084B030008000000007D
:100180004B0300084B03000800F002F800F060F891
:100190000AA090E8000C82448344AAF10107DA45E2
:1001A00001D100F055F8AFF2090EBAE80F0013F0D4
:1001B000010F18BFFB1A43F001031847C40C0100DC
:1001C000E40C01000A444FF0000C10F8013B13F05E
:1001D000070408BF10F8014B1D1108BF10F8015BA0
:1001E000641E05D010F8016B641E01F8016BF9D193
:1001F00013F0080F1EBF10F8014BAD1C0C1B09D1EA
:100200006D1E58BF01F801CBFAD505E014F8016B5B
:1002100001F8016B6D1EF9D59142D6D370470000ED
:100220000023002400250026103A28BF78C1FBD8FF
:10023000520728BF30C148BF0B6070471FB50EF092
:10024000A4FA9DE8030000F03FFA1FBD10B510BDF1
:1002500000F0A6FA1146FFF7F1FF09F0E1FC00F00B
:10026000C4FA03B4FFF7F2FF03BC00F0F5FA000094
:100270002C4B19680868B0E8F04F80F30988BFF389
:100280006F8F4FF0000080F311887047000000006E
:1002900008480068006880F308884FF0000080F389
:1002A000148862B661B6BFF34F8FBFF36F8F00DF64
:1002B00000BF00BF08ED00E0DFF80C00016841F46A
:1002C00070010160704700BF88ED00E0EFF3098026
:1002D000BFF36F8F134B1A681EF0100F08BF20ED8D
:1002E000108A20E9F04F106009B44FF0500080F3FD
:1002F0001188BFF34F8FBFF36F8F0DF081F84FF070
:10030000000080F3118809BC19680868B0E8F04F54
:100310001EF0100F08BFB0EC108A80F30988BFF3FD
:100320006F8F704704040020EFF3058070470000D2
:100330000948804709480047FEE7FEE7FEE7FEE779
:10034000FEE7FEE7FEE7FEE7FEE7FEE704480549B5
:10035000054A064B70470000055E00088901000849
:10036000E0540020E05A0020E0560020E056002033
:1003700070B5064600F08CF9056806F10B0020F018
:100380000704B4429CBF002070BD2B466A68BAB116
:100390001068A04210D304F1080188423CBF5068A5
:1003A000586007D35168101941601168091B01603A
:1003B00058601460101D70BD13465268002AE7D1C2
:1003C0002146284600F06CF90028DED170BD70B5DA
:1003D0000446051F00F05CF90068002C14BF446857
:1003E00070BD002C18BFAC423CBF20466468F8D3F7
:1003F00001680A18AA4218BF456003D12A68054659
:100400001144016028684119A1421CBF6C6070BD95
:100410006168696021680844286070BD53EA020C75
:1004200000F069802DE9F04B4FF00006002B1FBF54
:10043000B3FA83F503FA05F424FA05F65E4012BF19
:100440001643B2FA82F502FA05F4C5F120051EBF83
:1004500022FA05FC44EA0C04203556EA044C4FEA23
:10046000144418BF641C4FF000084FF0000990427C
:1004700071EB030C39D3002919BFB1FA81F701FAE6
:1004800007F6B0FA80F700FA07F6C7F120071EBF9B
:1004900020FA07FC46EA0C062037B6FBF4FCA7EB73
:1004A0000507103F07F01F0BCBF120060CFA0BFBE2
:1004B0002CFA06F644BFB3460026202FA4BF5E46A2
:1004C0004FF0000B5BEA060C08BF4FF0010B19EB75
:1004D0000B09ABFB027C48EB0608C01B06FB02CCF9
:1004E0000BFB03CC71EB0C01C1E70B460246414606
:1004F0004846BDE8F08B13B54FF000004FF0000107
:10050000AFF30080BDE81C407047032A40F2308002
:1005100010F0030C00F0158011F8013BBCF1020F44
:10052000624498BF11F801CB00F8013B38BF11F8C5
:10053000013BA2F1040298BF00F801CB38BF00F8DC
:10054000013B11F0030300F02580083AC0F0088059
:1005500051F8043B083A51F804CBA0E80810F5E73D
:10056000121D5CBF51F8043B40F8043BAFF3008020
:10057000D20724BF11F8013B11F801CB48BF11F895
:10058000012B24BF00F8013B00F801CB48BF00F865
:10059000012B704710B5203AC0F00B80B1E818501D
:1005A000203AA0E81850B1E81850A0E81850BFF45D
:1005B000F5AF5FEA027C24BFB1E81850A0E81850FC
:1005C00044BF18C918C0BDE810405FEA827C24BF50
:1005D00051F8043B40F8043B08BF7047D20728BFDE
:1005E00031F8023B48BF11F8012B28BF20F8023B2D
:1005F00048BF00F8012B70474FF000020429C0F0FB
:10060000128010F0030C00F01B80CCF1040CBCF144
:10061000020F18BF00F8012BA8BF20F8022BA1EB96
:100620000C0100F00DB85FEAC17C24BF00F8012B7B
:1006300000F8012B48BF00F8012B70474FF0000273
:1006400000B5134694469646203922BFA0E80C50C8
:10065000A0E80C50B1F12001BFF4F7AF090728BFA3
:10066000A0E80C5048BF0CC05DF804EB890028BF1F
:1006700040F8042B08BF704748BF20F8022B11F048
:10068000804F18BF00F8012B7047704770477047C4
:100690000048704788540020704770477047704783
:1006A00038B504460A4600206946AFF300800028AA
:1006B00008BF38BD02460099204600F04FF80120DF
:1006C00038BD012000F064B8F8B5AFF300800546EE
:1006D00000200C46102000BF0646A819A0420DD9E4
:1006E000324669460020AFF30080070008BF00F0E3
:1006F0004FF80098A04218BF0546C419FFF7C8FF7D
:1007000005600746F01D20F007004619284600F056
:100710000AF8B44208BFF8BDA21B31463868BDE8EC
:10072000F84000F01BB800210160C0E901107047DB
:100730001020704710B500F00DF8006810BD10B51E
:10074000044600F007F8046010BD00000048704740
:1007500080540020004870478054002003464068C1
:100760008C46002818BF88423CBF03464068F8D337
:1007700018681844884207D00CF1030020F00700E5
:10078000001D411A521A0146081D0A60FFF71FBEDC
:1007900010B500F039F8BDE8104000F02FB87047F0
:1007A0007546FFF7D3FFAE4605006946534620F075
:1007B0000700854618B020B5FFF7C8FDBDE820400A
:1007C0004FF000064FF000074FF000084FF0000B0D
:1007D00021F00701AC46ACE8C009ACE8C009ACE8C0
:1007E000C009ACE8C0098D46704710B50446AFF3A8
:1007F00000802046BDE81040FFF733BD002801D03F
:1008000000F02AB87047000010B5012805D000217B
:1008100003A000F027F8012010BD09A1F8E70000AF
:1008200053494752544D454D3A204F7574206F66D9
:100830002068656170206D656D6F72790000000041
:100840003A2048656170206D656D6F727920636F25
:10085000727275707465640001491820ABBEFEE7C2
:100860002600020070B505460C460A2000E06D1C0B
:1008700000F011F835B128780028F8D102E0641CA6
:1008800000F009F814B120780028F8D1BDE87040D4
:100890000A20AFF3008008B569468DF800000320F8
:1008A000ABBE08BD114890ED0B0AD0ED0A0A30EE40
:1008B000600ABDEEC00A10EE100A00B200F57A71AF
:1008C000B1F5FA6F06D9002802DD4FF47A7001E025
:1008D00000DA074800EE100A044800F17400B8EE90
:1008E000C00A006880ED060A704700007000002012
:1008F00018FCFFFF0649CA8AC2F3C0220270CA8AE6
:10090000C2F300324270C98AC1F3803181707047EE
:10091000A00000202DE9F04117462DED0A8B8846F6
:100920000646B3F90030DDE9131000EE103ADDE9B8
:100930001152B8EEC01AFE4CDDF840C084ED0E1A1C
:10094000BCF9003000EE103AB8EEC00A84ED0F0A90
:10095000B5F90030032593FBF5F31BB203EB43031A
:1009600000EE103AB8EEC00A84ED100AB2F9002089
:1009700000EE102AF8EEC00AC4ED110AB1F9001019
:1009800000EE101AB8EEC00A84ED120AB0F90000A9
:1009900020EE800A01EE900AF8EEE11AC4ED131A77
:1009A00020EE210AB5EEC00AF1EE10FA7DD0E14D3D
:1009B000297B9FEDE18AFDEEC10AB0EE480A10EEF8
:1009C000900A00B209F0FFF884ED0E0AD4ED0F0A88
:1009D000297BB0EE480AFDEEE00A10EE900A00B264
:1009E00009F0F1F884ED0F0AD4ED100A297BB0EE7E
:1009F000480AFDEEE00A10EE900A00B209F0E3F8B2
:100A000094ED0E1ADFEDCD0A21EE201A20EE200A19
:100A100084ED0E1A94ED0F1A21EE201A84ED0F1AB0
:100A200084ED100AD4ED110A297BB0EE000AFDEE28
:100A3000E00A10EE900A00B209F0D8F884ED110A2D
:100A4000D4ED120A297BB0EE000AFDEEE00A10EEAA
:100A5000900A00B209F0CAF884ED120AD4ED130A24
:100A6000297BB0EE000AFDEEE00A10EE900A00B21B
:100A700009F0BCF884ED130AB0EE401A94ED110AA7
:100A800060EE000A94ED120A40EE000A41EE010AFF
:100A9000B0EE600A08F064FF84ED070AD4ED110A95
:100AA00020EE803A84ED113A00E067E1D4ED120ABD
:100AB000B0EE008A60EE804AC4ED124AD4ED130A0B
:100AC00060EE803AC4ED133A94ED040AD4ED060AC0
:100AD000D4ED031A94ED051A20EE202A01EEC12A66
:100AE00022EE085A21EE802A84ED085A01EE202ACF
:100AF00022EE084A21EEA12A84ED094A00EE402A9E
:100B000001EE412A00EEA02A84ED0A2A64EE822A30
:100B100043EEC42A63EE853A43EE423A23EE043AAA
:100B2000C4ED0B2A04EEC53AC4ED0C3A84ED0D3A3F
:100B300094ED142AD4ED014A02EEA42A84ED142A7D
:100B400094ED155A03EEA45A84ED155A94ED164A05
:100B500003EE244A84ED164AD4ED0E5AD4ED004A31
:100B600044EEA25A35EE822A84ED0E2AD4ED0F2AE5
:100B700044EEA32A72EE852AB0EE615AC4ED0F2A24
:100B8000D4ED103A61EEA25A44EE833A61EE824A05
:100B900033EE843A20EE424A84ED103A41EE034AA5
:100BA00001EE624AC4ED171A84ED180A84ED191A91
:100BB000C4ED1A0AD4ED023A00EEC34A40EEE24A0E
:100BC00040EE435A04EE235AB0EE404A04EEA34AE4
:100BD00084ED035A84ED044A61EE831A40EE825A92
:100BE000F0EE414A40EE221A25EE050A45EEA34AF0
:100BF00004EE040A41EE421AC4ED054A04EEA40ACA
:100C000041EEA30AC4ED060A00EEA00A08F0A8FE11
:100C100084ED070AD4ED030A20EE80BA84ED03BA0E
:100C2000D4ED040A20EE809A84ED049AD4ED050AEE
:100C300060EE809AC4ED059AD4ED060A60EE808AD3
:100C40002BEE0B0AC4ED068A09EE490A09EEE90A01
:100C500008EEA80A10EE100A0DF026FD29EE880A0B
:100C60006BEE080A41EC1A0B20EE280A00EE890A06
:100C700010EE100A0DF018FD41EC100BB0EE4A1A00
:100C8000F0EE6A1A05F0E4FF9FED2DBB51EC100B5E
:100C900053EC1B2B0DF012FA0CF03CFFC8F80000CF
:100CA00094ED03CAD4ED04AA94ED05AA2CEE0C0A27
:100CB000D4ED068A0AEEAA0A0AEE4A0A08EEE80A03
:100CC00010EE100A0DF0F0FC2AEE8A0A41EC190B26
:100CD0000CEE280A20EE080A10EE100A0DF0E4FCD3
:100CE00041EC100BB0EE491AF0EE691A05F0B0FFB6
:100CF00053EC1B2B51EC100B0DF0E0F90CF00AFF3C
:100D0000386094ED040AD4ED060A94ED051A20EE3D
:100D1000080A20EE200AD4ED030A60EE880A00EEED
:100D2000C10A10EE100A0DF0BFFC41EC100B0BE0F5
:100D30007C030020281700200000FA44728A8E3CB1
:100D40000000006066A64C4005F066FC9FED0E1B9F
:100D500051EC100B53EC112B0DF0B0F90CF0DAFE46
:100D600000EE100ADFED0A0A9FED0A1A20EE200AB3
:100D7000D6ED000A00EE810A86ED000A0020BDECE7
:100D80000A8BBDE8F08100000000006066A64CC040
:100D9000CDCC4C3D3333733F2DE9F047804691462F
:100DA0000F46122003F016FF0446132003F012FF33
:100DB00044EA0026142003F00DFF0446152003F03A
:100DC00009FF44EA0025162003F004FF044617201B
:100DD00003F000FFA8F8006044EA00203D80A9F875
:100DE0000000BDE8F0872DE9FE4F1546DDE90C9ABD
:100DF0000E4607460C221C466946104603F010FFBB
:100E0000BDF80080BDF802C0BDF80430BDF8062072
:100E1000BDF80810BDF80A00A4F80080A9F800C0C9
:100E2000AAF800303A8031802880BDE8FE8F0000AB
:100E300038B5194807F0CEF806F040FD164806F020
:100E400001FD044606F03AFD24BB01208DF80000A8
:100E50000146114A684607F04BF906F02FFD0E488F
:100E600004F0D6FA00208DF800000B4A01216846F4
:100E700007F03EF906F022FD074804F09FFA022031
:100E80008DF80000044A0121684607F031F9044654
:100E900006F014FD204638BD2817002010B500F0DC
:100EA00013F8084C2089012802D1B42000F014F96D
:100EB0002089002804D1BDE81040FA2000F00CB9C8
:100EC00010BD0000901500200C480168087A022827
:100ED00010D10B4A487A5081B2F90830834208D0C9
:100EE000497A022905D102F10C010B891BB10023BB
:100EF0000B81108170470123FAE70000E400002015
:100F000084150020FEE7000000B58BB0684600F0B5
:100F10003FF86946054801F087F90221034801F0CE
:100F20000DF9024801F098FC0BB000BDC00600208E
:100F3000014801F074BA0000C006002003F0F8BDBB
:100F400000B58BB0684600F023F86946054801F00B
:100F50006BF90221034801F0F1F8024801F07CFC32
:100F60000BB000BDE8060020014801F058BA0000AF
:100F7000E806002070B50C460546044905F078FAED
:100F800021462846BDE8704003F002BE580000200C
:100F90000021016041608160C16001610122416105
:100FA000C0E90612C0E908217047000010B5104AD8
:100FB000016891420AD10F4B0F4A002101F0BBF9A1
:100FC0000D480C490068FFF7B9FF10BD0B4A91426C
:100FD000FBD1084B084A08331C32002101F0ABF961
:100FE000054804491C300068FFF7C4FF10BD00002D
:100FF00000640040500000207C1000200068004089
:1010000038B50E4C4FF4007525600025A560E560ED
:10101000082525610A4C050A25706070080AA07031
:10102000E170100A20716271180AA071E3716B46B9
:1010300022460249034801F093F838BDF416002017
:101040005C030020C006002038B50E4C40F2FF15AE
:1010500025600025A560E560082525610A4C050A84
:1010600025706070080AA070E170100A207162712A
:10107000180AA071E3716B4622460249034801F049
:101080006FF838BDDC16002054030020C006002095
:1010900038B50E4C4FF4007525600025A560E5605D
:1010A000082525610A4C050A25706070080AA070A1
:1010B000E170100A20716271180AA071E3716B4629
:1010C00022460249034801F04BF838BD0C170020B6
:1010D00064030020E806002001498863704700008F
:1010E000000001400421014802F05CBD100700200F
:1010F0000421014802F0F2BC100700202B492C4AC1
:101100009FED2C1AB1F86A1000EE101AB8EE400AE2
:1011100010EE101A914201DDB0EE410A10EE101AE5
:10112000C0EE010A244B994201DA60EEA00A10EEEB
:10113000101A9FED220A914201DA20EE800AB0F9DE
:101140000020002A00DC5242B0F90210002900DC25
:1011500049420A44B0F90410002900DC49420A441B
:10116000B0F90610002900DC4942114400EE901A43
:10117000F8EEE00A80EE201AF4EEC00AF1EE10FA62
:1011800012DB002130F9112000EE102AB8EEC00A5F
:1011900020EE010ABDEEC00A10EE102A20F8112040
:1011A000491CC9B20429EDD3704700003402002065
:1011B00000007042000070420000C8410000FA4682
:1011C00070B5D0ED0B0A90ED0C0A044630EE801A93
:1011D00030EE602A70EEC01AF1EE600A80ED031A5C
:1011E00070EEC02A80ED042AC0ED051AC0ED062A73
:1011F00056480078012804D055480078012803D0CB
:1012000006E0B7EE080A01E0B7EE000A84ED010A35
:10121000D4ED0D0A4F4A002031EE200AB2EE001A3A
:1012200032EE202A71EEA01A20EE013A72EEA00AE8
:1012300094ED010A22EE012A61EE811A60EE810A24
:1012400023EE003A22EE002A61EE801A84ED073A7E
:1012500020EE800A84ED082AC4ED091A84ED0A0AFA
:1012600004EB800191ED070AB5EEC00AF1EE10FA29
:1012700002DDF0EE400A01E0F1EE400A10EE903A95
:1012800093420FDBB5EEC00AF1EE10FA94ED021AAC
:10129000C1EE000A02D220EE600A01E020EE800AD0
:1012A00081ED070A401C0428DADB2B4DD4ED070A38
:1012B000B5F9000000EE100A2848B8EEC00A08F0A0
:1012C0003AFEB5F92000D4ED080A00EE100A2348D2
:1012D000B8EEC00A483008F02EFEB5F94000D4ED53
:1012E000090A00EE100A1D48B8EEC00A903008F056
:1012F00022FEB5F96000D4ED0A0A00EE100A174884
:10130000B8EEC00AD83008F016FE144A144C00207B
:1013100000EBC00102EBC10191ED0B0ABDEEC00A6A
:1013200010EE101A24F81010401C0428F0DB0C48B2
:10133000FFF7E4FEB4F90630B4F90420B4F9021062
:10134000B4F90000BDE87040FFF75ABEFE0300206C
:10135000FF0300200000FA459C1500206C0B0020C4
:1013600064010020DFED050A4FF47A72B5EE000A41
:10137000B0EE601AD100024803F043BF0000000045
:101380003410002070B54FF4FA642DED028BA500E7
:101390009FED1A8AF7EE080AB3EE040AB0EE481A77
:1013A00022462946164803F02CFF1548B0EE481A8D
:1013B000F7EE080AB3EE040A22462946483003F045
:1013C00020FF0F48B0EE481AF7EE080AB3EE040A01
:1013D00022462946903003F014FFB0EE481ABDECC7
:1013E000028B22462946BDE870400548F7EE080A00
:1013F000B3EE040AD83003F004BF00000000000080
:101400006C0B00202DE9F0416749044641F2CC27DE
:10141000B1F90A0040F2CD2E022806D0032876D179
:1014200062480078012873D0B5E06148B0F81CC06C
:101430009FED600ADFED600A614A6048BC45B2F981
:101440000060604AB0F908505F48B2F900300068A7
:1014500043EA06023AD1B1F9081011B1012917D0B7
:101460002DE0B0F9001000EE101AB8EEC00A84EDBD
:101470000D0AB0F9061000EE101AB8EEC00A84ED9D
:101480000B0AB0F9041000EE101AB8EEC00A14E00E
:10149000012B01D184ED0D0A012E01D01AB106E015
:1014A000C4ED0D0A03E090ED080A84ED0D0A90EDFD
:1014B000070A84ED0B0A90ED060A84ED0C0A012D53
:1014C00058D1D0ED080A9FED410A43E0F44551D1CF
:1014D000B1F9081011B101291BD035E0B0F90010A5
:1014E00000EE101AB8EEC00A84ED0D0AB0F906102D
:1014F000494200EE101AB8EEC00A84ED0B0AB0F9AA
:101500000410494200EE101AB8EEC00A1AE031E0A9
:1015100032E0012B01D184ED0D0A012E01D01AB168
:1015200006E0C4ED0D0A03E090ED080A84ED0D0A13
:1015300090ED070AB1EE400A84ED0B0A90ED060A21
:10154000B1EE400A84ED0C0A012D13D1D0ED080A4A
:101550009FED1F0A60EE800AC4ED0D0AD0ED070A68
:1015600060EE800AC4ED0B0AD0ED060A20EE800A78
:1015700084ED0C0ABDE8F081888860B9154841F215
:101580009312B0F98800A0F6C510904201D24F80A6
:1015900001E0A1F802E0204600F0D2FB2046BDE8C1
:1015A000F04104F021B8000048010020FC030020B5
:1015B000601500200000A0C20000A042901500208D
:1015C0000204002000040020E4000020CDCCCC3D2B
:1015D000CDCCCCBD9C15002010B502F0E1FE02F090
:1015E000E5FE02F0E9FE0448816888470348816807
:1015F000BDE8104008470000F40200201802002057
:10160000014801F0B7B9000024080020014801F0AA
:10161000B1B9000044090020014801F0ABB9000055
:10162000A4090020014801F0A5B90000E408002049
:10163000014801F09FB90000840800202DE9F04F17
:1016400085680024099E802D18D0894DC563894D79
:10165000456490F83450012D15D0012580F83450A0
:1016600090F83550012D10D0002180F8341002245C
:10167000002180F834102046BDE8F08F4FF48071CF
:1016800041650120F8E70220F6E7022580F8355091
:101690000025456505682F6847F480272F60056899
:1016A0002B6103685E608368402B03682AD09960D1
:1016B0000168CA60714D704E704FDFF8BC81DFF871
:1016C000B891DFF8B8A1DFF8B4B1EA14DFF8A8E107
:1016D0000168183630379302A9F148090AF1600A07
:1016E0000BF1180BAEF1300E4FF0006C41452DD9C7
:1016F000A94205D0494503D0514501D0B14205D199
:10170000202220E09A600268D160D3E759451AD0C0
:10171000714518D0594D7835A94214D0564D303501
:10172000A94210D0B9420BD0534A183A914207D07F
:10173000524A9032914203D04F4A4832914201D1ED
:101740001A4600E062464C494C392EE0DFF82C8105
:1017500008F1A80841452AD9A94205D0494503D036
:10176000514501D0B14201D120221CE059451AD087
:10177000714518D0414D7835A94214D03E4D3035D1
:10178000A94210D0B9420BD03B4A183A914207D037
:101790003A4A9032914203D0374A4832914201D1BD
:1017A0001A4600E06246344950390A605AE0DFF8D0
:1017B000CC8008F1480841452AD9A94205D04945BD
:1017C00003D0514501D0B14201D120221CE059453E
:1017D0001AD0714518D0294D7835A94214D0264D1C
:1017E0003035A94210D0B9420BD0234A183A914261
:1017F00007D0224A9032914203D01F4A4832914288
:1018000001D11A4600E062461C491039CA6029E03D
:10181000A94205D0494503D0514501D0B14201D17B
:1018200020221CE059451AD0714518D0134D783547
:10183000A94214D0104D3035A94210D0B9420BD076
:101840000D4A183A914207D00C4A9032914203D087
:10185000094A4832914201D11A4600E062460749DE
:1018600010398A6001680A6842F001020A60FFE6E6
:10187000058800081D880008586402401060024076
:1018800001681823CAB2103AB2FBF3F2054B6FF3AA
:101890000901032A9B5CC36500D9091D81650846BF
:1018A000704700009CE8000810B5014600208B69D5
:1018B0008A6A4FF0C07453B1B3F5005F15D072B1AE
:1018C000012A0CD0022A0AD0032A09D104E01AB155
:1018D000012A06D0022A03D1C96AC90100D5012014
:1018E00010BDC96AA142FAD010BD002AF7D0012A62
:1018F000F2D0022AF3D0032AF3D010BD70B590F8CD
:1019000034500024012D0CD0012580F8345090F87B
:1019100035600025012E06D080F834500224204680
:1019200070BD022070BD022680F8356045650568EF
:101930002E6826F480262E6005686B608368402B35
:10194000036808D099600168CA600068016841F0C6
:1019500001010160E3E79A600268D160F5E710B524
:10196000FFF7D2FAFFF7ECFA03F050FC04F0F6FCB4
:1019700004F020FDBDE8104004F050BD01680A6885
:10198000D20604D5C968C90601D50BF01FBB704744
:10199000704772B6FEE78279C1798A4202D000228E
:1019A000026081717047000010B51E4C0121E1807A
:1019B000606B401C6063B0F5FA7F1CD32346A28A9B
:1019C000DFED190A93ED0A0A002012B1012A09D0AD
:1019D00011E030EE200A84ED0A0AA1822188491C18
:1019E000218007E030EE600A84ED0A0AA082618857
:1019F000491C618060630D4894ED0A1AB0F94010EB
:101A000000EE101A0A49F8EEC00A90ED150A0948CE
:101A1000B8EEC00A06F0DEFD054890ED0B0A84ED35
:101A2000090A10BD840100200060EA465C1600200F
:101A3000140F00205C0F002010B558B1084C491E4F
:101A40000BD310F8013B5340DBB234F8133083EA78
:101A50001222F4E74FF6FF7010BD104610BD0000D3
:101A6000BCE9000810B5064C04E000BF10F8013BCB
:101A70005340E25C491E89B2F8D2104610BD000006
:101A8000BCE8000810B5194C208801282DD100F0C1
:101A9000C5F917481749B0F988208B8BD21A02F183
:101AA0003203642B21D812F1320F1EDBB0F9A800EB
:101AB00000EE100AF8EEC00A91ED040A70EEC00ABA
:101AC000F5EEC00AF1EE10FA00EE900AF8EEE00A28
:101AD00002DD30EEC00A01E030EE600A064910EE89
:101AE000100A884201DC0020208010BDEC03002099
:101AF0009C15002060150020000048429FED0B0A55
:101B0000DFED0B0A80ED000A80ED010A80ED020A8C
:101B100080ED030AC0ED040A80ED050A80ED060A97
:101B200041F2CC21818380ED080A7047000000005B
:101B30000068D6452DE9F0416D4E01202DED068B54
:101B400030806C486C4CB0F9A85000EE105AB8EEDA
:101B5000C00A84ED060A7088012805D194ED080AB0
:101B6000002084ED020A708064486549B0F90000E5
:101B70009FED64AB9FED659B5F4A0F6892ED008A15
:101B800010B1012817D03AE0B7F900000CF02FFA95
:101B900053EC1A2B0CF092FA0BF0BCFF00EE100A7B
:101BA00084ED010A38EE000A84ED000AB7F902005C
:101BB0000CF01DFA13E0386A0CF076FD53EC1A2B8A
:101BC0000CF07CFA0BF0A6FF00EE100A84ED010A7F
:101BD00038EE000A84ED000A786A0CF065FD53ECDB
:101BE000192B0CF06BFA0BF095FF00EE100A84ED48
:101BF000030AD4ED020A30EE800A84ED020A454859
:101C00000089012803D19FED440A84ED020AA5F55D
:101C1000D055CD3D00EE105A414FF8EEC00A9FED71
:101C20003F0AC0EE801AD7ED000A9FED3E1A94EDF0
:101C3000022A30EE811A71EE611AF4EEC21AF1EE48
:101C400010FA09D801EE905AB8EEE12AC2EE001A55
:101C500031EE611A84ED021A01EE105AB8EEC11A83
:101C6000C1EE001ABBEE091A70EE810A30EEE11ADD
:101C7000D4ED021AB4EEE11AF1EE10FA09DB01EE2E
:101C8000105AB8EEC11AC1EE001A30EEE10A84ED26
:101C9000020A254894ED001A2549B0F9000000EE2B
:101CA000100A2248F8EEC00A90ED000A214806F01A
:101CB0004DFC21481E4994ED021AB0F9000048314C
:101CC00000EE100A1B48F8EEC00A97ED000A4830F3
:101CD00006F01AFC194890ED530A86ED010A90EDC2
:101CE000650A86ED020ABDEC068BBDE8F0810000B6
:101CF000700100209C15002060150020500100207C
:101D0000E40000202D431CEBE2364ABFFCA9F1D2CF
:101D10004D6230BF90150020000000003D0AB64122
:101D20000C000020000018420400002014000020D5
:101D30008C0C00204C0A0020020000206C0B0020BC
:101D400070B5304B044630481A78304982B3012AC6
:101D500043D14FF4C8759FED2E0A84ED0D0ACC686F
:101D6000641CCC60B0F988200020A2F59056B83EE3
:101D7000282E06D8AC4204DB41F2CC244C801870EB
:101D8000C860A2F2B924282C07D8CC68AC4204DB86
:101D900040F2CD244C801870C8601E4CA2F56D66D0
:101DA000282E24781FD8CE68AE421CDBB4B11AE0CE
:101DB000FFE7B0F9880000EE100AB1F9000000EE6C
:101DC000900AB8EEC00A1448F8EEE00A08F0EAF803
:101DD000114890ED0B0A84ED0D0A70BD40F6E466E3
:101DE0004E801870C86002F22F12282AF5D8CA68EF
:101DF000AA42F2DB002CF0D16FF48D724A80187089
:101E0000C86070BDFA0300209C1500204801002026
:101E100000000000FC0300203410002070B54A4D83
:101E200001202DED048B68804848494C90ED000A54
:101E300084ED080A28889FED478A01280BD194ED8C
:101E4000060A454884ED040A0088012801D184ED82
:101E5000048A002028804148008886B24048A68332
:101E600090ED000A3F4884ED000AB0F900103E48AA
:101E70009FED3E9B006811B1012905D017E0B0F934
:101E800002000CF0B4F802E0406A0CF00DFC53ECD8
:101E9000192B0CF013F90BF03DFE00EE100A84ED47
:101EA000050AD4ED040A30EE800A84ED040A3148B4
:101EB0000089012801D184ED048A2F4920698842D4
:101EC00003DC9FED2E0A84ED040A2D492069884227
:101ED00003DB9FED2C0A84ED040A00EE106A2A4E03
:101EE0002B49B8EE401A36F9880F00EE100A274841
:101EF000B8EEC00AB0F9000000EE900A2548F8EEEE
:101F0000E00A06F045FBB6F92000214900EE100A70
:101F1000214894ED041AB8EEC00AB0F90000483127
:101F200000EE900A1B48F8EEE00A483006F0CAFAC4
:101F30001A4890ED770A85ED010A90ED890A85ED42
:101F4000020ABDEC048B70BD700100200C00002063
:101F5000601500200068D645EC03002048010020F1
:101F60001400002050010020E40000207B14AE4744
:101F7000E17A74BF9015002000E8BF4500E8BF4536
:101F80000040F1450040F1459C1500200400002070
:101F90001C0D0020DC0A0020020000206C0B002039
:101FA00070B54FF4FA642DED028B46F2A8159FED43
:101FB0001B8AF7EE000AB3EE0E0AB0EE481A22466C
:101FC0002946174803F01DF9DFED168AB0EE481ACE
:101FD000F0EE480AB0EE680A00222946124803F0E3
:101FE00010F90F48B0EE481AF7EE000AB3EE090AEE
:101FF00022462946483003F004F9B0EE481AF0EEC4
:10200000480AB0EE680ABDEC028B2946BDE8704074
:1020100005480022483003F0F4B80000000000003A
:102020008C0C0020000048434C0A002070B54FF48F
:10203000FA642DED028B44F620659FED1A8AF7EEC7
:10204000000AB3EE0E0AB0EE481A22462946164898
:1020500003F0D7F8B0EE481AF0EE480AB2EE0E0AD6
:1020600000222946114803F0CCF80F48B0EE481A78
:10207000F7EE000AB3EE020A22462946483003F082
:10208000C0F8B0EE481AF0EE480ABDEC028B2946C3
:10209000BDE8704005480022B2EE0A0A483003F05D
:1020A000B0B80000000000001C0D0020DC0A002079
:1020B00070B54FF4FA642DED028B44F620659FED68
:1020C0001B8AF7EE000AB3EE0E0AB0EE481A22465B
:1020D0002946174803F095F8DFED168AB0EE481A46
:1020E000F0EE480AB0EE680A00222946124803F0D2
:1020F00088F80F48B0EE481AF7EE000AB3EE090A66
:1021000022462946483003F07CF8B0EE481AF0EE3B
:10211000480AB0EE680ABDEC028B2946BDE8704063
:1021200005480022483003F06CB8000000000000B1
:102130008C0C0020000048434C0A002090F820201E
:10214000012A07D0022A05D0416A41F48021416268
:1021500001207047006842690A43426100207047CD
:10216000F0B590F820500468A468012D05D0022D28
:1021700003D0416A41F4802153E014F0406F01D153
:10218000E5004BD5C4F30164022C03D9416A41F444
:10219000000146E00125A5401D608D684FF4C07325
:1021A0009DB1CE6835434E6845EAC605066803EB27
:1021B0000417F5514FF4C275076805EB04150E6955
:1021C0007E51097D012905D009E00E88CD6845EAD8
:1021D0004655EBE701684E5946F480764E51117929
:1021E000D2F805504FF4C67641EA0525016806EBA2
:1021F00004168D511178D2F801204FF4C47541EACC
:102200000221026805EB04155151006803EB04112B
:10221000425842F0010242500020F0BD416A41F4B0
:10222000001141620120F0BD10B590F82020012A74
:1022300007D0022A05D0416A41F480214162012081
:1022400010BD3B48D0F8002242F00102C0F8002245
:10225000D0F8002222F47C52C0F80022D0F80022EC
:102260004B6A42EA0322C0F800220A7D02F01F03F3
:1022700001229A40D0F81C329343C0F81C32CB693B
:10228000B3B9D0F80C329343C0F80C328C894B6848
:1022900064F31F434C6900EBC404C4F840320C895A
:1022A0000B6864F31F434C6900EBC404C4F8443268
:1022B000CB69012B16D1D0F80C321343C0F80C3285
:1022C0000C884B6864F31F434C6900EBC404C4F8EA
:1022D00040320C89CB6864F31F434C6900EBC404A3
:1022E000C4F844328B69002BD0F804320ED013436B
:1022F000C0F804320B69002BD0F8143208D0134315
:10230000C0F81432096A012904D008E09343EFE7CA
:102310009343F5E7D0F81C121143C0F81C12D0F813
:10232000001221F00101C0F80012002010BD0000D1
:1023300000640040704730B590F82040012C05D073
:10234000022C03D0416A41F480215DE00468002939
:1023500055D02469A40754D04FF4D874056804EB11
:1023600001142D5915F00405956005682D594ED0BE
:10237000ED08556005682C5904F00204D4604FF450
:10238000DA74056804EB01142D5905F00F05156189
:1023900005682D59C5F30725956105682C59240C4E
:1023A00054614FF4DC72046802EB0112A4581C70F3
:1023B0000468A458240A5C700468A458240C9C7017
:1023C0000468A258120EDA704FF4DE72046802EB51
:1023D0000112A4581C710468A458240A5C71046892
:1023E000A458240C9C710468A258120EDA7100687B
:1023F00081B1016941F020010161002030BDE46834
:10240000A8E7416A41F400114162012030BD6D0D21
:102410001560AFE7C16841F02001C160EDE72DE92B
:10242000F05F0546006800244669D0F8049087688C
:10243000D0F80CB0D0F810A0D0F81880F10748D030
:10244000F90714D001218160B80703D5284600F0B0
:1024500030FA0CE0780702D54FF4006407E0380743
:1024600002D54FF4805402E0284600F021FAF80526
:1024700016D529684FF480708860B80503D52846C2
:1024800000F019FA0CE0780502D544F4005407E096
:10249000380502D544F4804402E0284600F00AFAE8
:1024A000F80316D529684FF480308860B80303D547
:1024B000284600F002FA0CE0780302D544F4004408
:1024C00007E0380302D544F4803402E0284600F0E7
:1024D000F3F9300707D55FEACB6004D529681020EF
:1024E00044F40074C86070074FF0080707D55FEA2E
:1024F0000B7004D52868C760284600F099F9B0072A
:1025000006D52868C068800702D0284600F092F9F6
:10251000700607D55FEACA6004D52968102044F424
:1025200080640861B00607D55FEA0A7004D52868A0
:102530000761284600F08CF9F00606D52868006986
:10254000800702D0284600F084F9B00308D55FEA7E
:10255000C96005D5296810204860284600F07AF93E
:10256000F00307D55FEA097004D52868476028465C
:1025700000F0A4F9300446D55FEA497040D5F00573
:1025800004D55FEAC87001D044F00104B00504D559
:102590005FEA887001D544F00204700504D55FEA53
:1025A000487001D544F00404300529D518F0700FA7
:1025B00026D008F07000402815D006DC102809D07D
:1025C00020280AD0302816D10AE050280ED06028E2
:1025D00011D10EE044F008040DE044F010040AE0CC
:1025E00044F0200407E044F0400404E044F0800498
:1025F00001E044F480742868816921F070018161F0
:10260000296804204860002C05D0686A204368626D
:102610002846FFF78FFEBDE8F09F70B5040003D099
:1026200094F8200010B104E0012070BD204600F0B5
:1026300081F82068016841F00101016000F0D2FBDF
:102640000546052604E000F0CDFB401B0A2811D802
:1026500020684068C007F6D02068016821F00201B8
:10266000016000F0BFFB05460BE000F0BBFB401B28
:102670000A2806D9606A40F40030606284F820605D
:10268000D2E7206840688007EFD4207E01282068C8
:1026900001683DD021F080010160607E0128206842
:1026A000016838D021F040010160A07E0128206837
:1026B000016833D021F020010160E07E012820680C
:1026C00001682ED041F010010160207F01282068B0
:1026D000016829D021F008010160607F012820688D
:1026E000016824D021F004010160D4E9020108430B
:1026F000D4E90412114308436168491E0843216864
:10270000C86100206062012084F82000002070BDB4
:1027100041F08001C0E741F04001C5E741F02001F0
:10272000CAE721F01001CFE741F00801D4E741F0FA
:102730000401D9E7F0B587B0044614216846FDF7D7
:102740007DFF364B3648DFF8D0E01968D4F800C07A
:10275000334A03250226092710300024491CF4457A
:1027600022D11960012907D1016841F0007101608F
:10277000006800F000700590106840F008001060DC
:102780001068CDE9005600F00800CDE904706946F4
:102790002448CDE9024500F027FA00220521142043
:1027A00000F0D0FB142032E0DFF87CE0F44530D1BB
:1027B000D0F800C04CF0806CC0F800C0D0F800C069
:1027C00001290CF0806CCDF814C0196007D10168A4
:1027D00041F000710160006800F000700590106821
:1027E00040F002001060106802AB00F0020005909B
:1027F0006020CDE9000683E8B00069460B4800F090
:10280000F3F900220521402000F09CFB402000F05D
:102810008BFB07B0F0BD0000006400403C000020CE
:1028200030380240000C02400068004000040240C2
:1028300070470000044A0168914202D0034A914265
:1028400001D1FEF7B3BB7047006400400068004050
:10285000704770477047000070B5044690F820003C
:10286000012804D0606A40F40020606218E0022071
:1028700084F820002068016821F00101016000F067
:10288000B1FA05460EE000BF00F0ACFA401B0A2882
:1028900008D9606A40F400306062052084F82000A6
:1028A000012070BD20684068C007EDD1606270BD36
:1028B00070477047704770477047704770472DE901
:1028C000F0410446876D00F08DFA064694F8350015
:1028D0000025022806D08020606584F8345001204D
:1028E000BDE8F0812068016821F0160101602068D0
:1028F000416921F080014161206C08B9A06C20B1D0
:102900002068016821F0080101602068016821F059
:10291000010101600CE000F065FA801B052807D971
:1029200020206065032084F8350084F83450D7E710
:1029300020680068C007EED194F85C103F20884002
:10294000B860012084F8350084F834500020C7E7CF
:1029500090F83510022903D080214165012070478D
:10296000052180F835100068016821F0010101603F
:10297000002070472DE9F84304464FF00009CDF8D8
:10298000009063484FF41651A56D0068B0FBF1F755
:102990002E6894F85C10082000FA01F131420FD043
:1029A00021680A6852070BD50A6822F004020A60FF
:1029B00094F85C108840A860606D40F0010060658C
:1029C00094F85C104FF0010808FA01F0304208D08A
:1029D00021684969090604D5A860606D40F00200CD
:1029E000606594F85C1004208840304208D021686B
:1029F0000968890704D5A860606D40F0040060652F
:102A000094F85C1010208840304218D02168096882
:102A1000090714D5A86020680168490304D5006837
:102A2000000308D5A16C07E00168C90503D401685B
:102A300021F008010160216C09B12046884794F813
:102A40005C1020208840304231D021680968C906D6
:102A50002DD5A86094F8350005282068016806D0B7
:102A6000490347D5006800031DD4616C1CE021F0C8
:102A7000160101602068416921F080014161206CEC
:102A800008B9A06C20B12068016821F0080101603C
:102A900094F85C103F208840A86084F8358084F862
:102AA0003490216D1FE0E16B09B120468847606DCD
:102AB00000282BD0606DC00714D0052084F83500A5
:102AC0002068016821F0010101600098401C00901D
:102AD000B84203D820680068C007F6D184F8358072
:102AE00084F83490E16C002910D001B02046BDE894
:102AF000F04308470168C905D5D4016821F01001E9
:102B0000016084F8358084F83490CCE7BDE8F88320
:102B10004C0000202DE9F041044600F063F9064620
:102B20005CB1022084F83500002584F83450206818
:102B3000016821F0010101600DE00120BDE8F08194
:102B400000F050F9801B052805D92020606503207E
:102B500084F83500F2E720680068C007F0D12268E9
:102B6000116820480140D4E901031843D4E9033631
:102B70003343184363691843A3691843E36918434F
:102B8000236A18430843616A042903D1D4E90B136B
:102B900019430843106020684069666A20F0070105
:102BA00030460E43012704280CD1A06A0643E06A90
:102BB00040B12046FEF778FE20B14020606584F8E1
:102BC0003570BAE7206846612046FEF759FE94F852
:102BD0005C203F2191408160656584F8357000205C
:102BE000ACE700003F8010F02DE9F84FDFF8BCA102
:102BF0000022012503264FF00F090AF1040BAAF168
:102C0000040E00BF0B6805FA02F42340A34270D102
:102C10000F7907F00307012F01D0022F16D1876823
:102C20004FEA420806FA08FC27EA0C07D1F80CC064
:102C30000CFA08FC4CEA070CC0F808C04768A74328
:102C40000C79C4F3001494403C4344600C79E44391
:102C5000A4070AD0C4684FEA420C06FA0CF7BC433A
:102C60008F6807FA0CF72743C7600C7904F0030458
:102C7000022C12D1D40800EB840CDCF8204057075A
:102C8000FF0E09FA07F824EA0804D1F8108008FAC0
:102C900007F848EA0408CCF8208004684FEA420CA0
:102CA00006FA0CF7BC430F7907F0030707FA0CF795
:102CB000274307604C6814F4403F70D03C4C2768B1
:102CC00047F480472760246822F0030704F4804417
:102CD0000094384C07EB040CDCF8084897074FEADF
:102CE000177809FA08F7BC43334FB84202D10027DE
:102CF00024E054E0314FB84201D101271EE0304FAB
:102D0000B84201D1022719E02E4FB84201D1032762
:102D100014E02D4FB84201D104270FE02B4FB842E9
:102D200001D105270AE02A4FB84201D1062705E064
:102D3000284FB84201D1072700E0082707FA08F713
:102D40002743CCF80878DAF800405746D1F804C099
:102D50009C435FEACC2C00D51C433C60DBF8004070
:102D60005F46D1F804C09C435FEA8C2C00D51C431D
:102D70003C60DEF800407746D1F804C09C435FEA2F
:102D80008C3C00D51C433C60084F083F3C68D1F8A0
:102D900004C09C435FEACC3C00D51C433C60521C01
:102DA000102AFFF42FAFBDE8F88F0000083C014067
:102DB000443802400030014000000240000402405C
:102DC00000080240000C02400010024000140240C3
:102DD00000180240001C02400AB1816170470904DA
:102DE000FBE70000014880687047000040000020B9
:102DF00009480168094A1278114401604FF0804186
:102E0000496A006800EB4002C2EBC01001EBC00051
:102E1000034908607047000048000020400000207F
:102E20006C0000200B4810B5016841F4007101608E
:102E3000016841F480610160016841F480710160C2
:102E4000032000F09FF80F2000F006F800F050F883
:102E5000002010BD003C024030B50546204887B038
:102E60000024016841F001010160006806A900F03A
:102E70000100009001A800F031F90498B0B100F011
:102E80004DF9400017494FF08042B0FBF1F1164870
:102E9000491E026040F2E732C0E90324C0E9011490
:102EA000846100F0B7FB040003D015E000F036F9B0
:102EB000E8E70D4800F0F0FB04000DD11C2000F005
:102EC00033F8102D07D2002229461C2000F03AF8D2
:102ED0000648056000E0012407B0204630BD000030
:102EE0004038024040420F00040A00204400002005
:102EF0000C4882B0016841F480410160006800F430
:102F0000804000900748001F016841F08051016037
:102F10000068002200F0805000900F21901E02B047
:102F200000F010B844380240002809DB00F01F020E
:102F3000012191404009800000F1E020C0F800111B
:102F400070470000F0B40E4B1B680C46C3F302231D
:102F5000C3F10705042D00D90425191D072901D245
:102F6000002300E0DB1E012606FA05F1491E214080
:102F700099409E40761E16403143F0BC03F03CBBA6
:102F80000CED00E0064900F0070208684FF6FF0369
:102F9000184040EA0220034A1043086070470000CE
:102FA0000CED00E00000FA052DE9F0470E460500A3
:102FB00065D0DFF81481D8F80000F7B200F0070000
:102FC000B04207D288F80070D8F8000000F007007F
:102FD000B04254D128683D4C810712D5400703D533
:102FE000206840F4E05020602878000703D520686E
:102FF00040F4604020602068A96820F0F000084399
:1030000020602878C0072DD0304968680839012829
:1030100012D0022813D0032811D00968890700298B
:103020002DDA216821F0030101432160FFF7DAFE68
:10303000814641F2883A0EE009688903EFE70968A2
:103040008901ECE7FFF7CEFEA0EB0901514502D95B
:103050000320BDE8F0872068696800F00C00B0EB41
:10306000810FEFD1D8F80010404601F00701B142BE
:1030700007D90770006800F00700B04201D00120B6
:10308000E7E72878400705D52068E96820F4E05094
:10309000084320602878000706D52068296920F4B5
:1030A000604040EAC100206000F058F82168084AFA
:1030B000C1F30311515CC840064908600648006826
:1030C000FFF7CAFE0020C4E7003C02400838024077
:1030D000A4E800084C000020440000200F220260F9
:1030E0000C4A136803F003034360136803F0F00312
:1030F0008360136803F4E053C36012684FF4E05335
:1031000003EAD20202610448006800F00700086088
:103110007047000008380240003C0240044805495E
:1031200000680968044AC1F38221515CC8407047B5
:103130004C00002008380240B4E800080448054963
:1031400000680968044AC1F34231515CC8407047C5
:103150004C00002008380240B4E80008154810B5BB
:10316000006810F00C02144813D01449042A0FD040
:10317000082A0ED10F4C241F2268236802F03F0258
:103180005B0207D52068C0F38810A0FB010106E0B0
:10319000084610BD2168C1F38811A1FB000100237E
:1031A000FDF73CF92168C1F30141491C4900B0FB1E
:1031B000F1F010BD083802400024F40040787D0191
:1031C0002DE9F84F04006ED02078DFF84C93C0074B
:1031D000A9F104054AD009F104000168C1F3810195
:1031E000012908D00068C0F3810002280AD1D9F86B
:1031F0000000400206D52868800337D560680028A3
:10320000E1D033E06068B0F5803F10D0B0F5A02F7A
:10321000286810D020F480302860286820F48020AE
:1032200028606068A8B1FFF7DDFD06460DE028685C
:1032300040F48030F4E740F480202860F7E700BFD6
:10324000FFF7D0FD801B642873D828688003F7D56A
:103250000CE0FFF7C7FD064605E000BFFFF7C2FD23
:10326000801B6428F0D828688003F7D42078DFF822
:10327000AC8280074FF0000A3ED5A748001D0168C8
:1032800011F00C0F08D00068C0F3810002280BD1A8
:10329000D9F80000400207D42868800716D5E068F6
:1032A000012800D112E033E1E068B8B10120C8F88C
:1032B0000000FFF797FD064605E000BFFFF792FD0F
:1032C000801B0228C0D828688007F7D528682169A4
:1032D00020F0F80040EAC10028600DE0C8F800A026
:1032E000FFF780FD064604E0FFF77CFD801B022807
:1032F0001FD828688007F7D42078000722D5864F8A
:1033000087486169703771B101210160FFF76AFD7B
:10331000064604E0FFF766FD801B022809D83868DE
:103320008007F7D50EE0C0F800A0FFF75BFD06466A
:1033300005E082E0FFF756FD801B02287DD8386843
:103340008007F7D42078400768D5DFF8CCB1002794
:103350000BF13C0BDBF80000C0000BD4DBF80010D5
:1033600041F08051CBF80010DBF80000012700F09D
:10337000805000906B4E3068C00510D4306840F427
:1033800080703060FFF72EFD009005E0FFF72AFD0A
:103390000099401A022850D83068C005F6D55E4E14
:1033A000A0686C3601280FD00528306810D020F0B6
:1033B00001003060306820F004003060A068B8B1CF
:1033C000FFF710FD00900FE0306840F00100F4E7D7
:1033D00040F004003060F7E7FFF704FD0099411A60
:1033E00041F28830814266D830688007F4D50EE01B
:1033F000FFF7F8FC009007E0FFF7F4FC0099411A92
:1034000041F28830814256D830688007F4D42FB119
:10341000DBF8001021F08051CBF80010A069C8B390
:103420003D49091D0968C1F3810102294AD00228DA
:10343000504607D0C8F8600000E03CE0FFF7D2FC3F
:1034400004463BE04746C8F86000FFF7CBFC064661
:1034500005E000BFFFF7C6FC801B02282BD82868B8
:103460008001F7D4D4E907010843A16A2E4A49082C
:1034700002EB0141626A41EA8211084394F82C1080
:1034800040EA0161C9F8001001203866FFF7AAFC84
:10349000044606E03EE000BFFFF7A4FC001B022844
:1034A00009D828688001F7D534E000BFFFF79AFCFF
:1034B000001B022802D90320BDE8F88F286880018C
:1034C000F4D427E00128F7D0D9F80000E26900F42D
:1034D000800191421CD1226A00F03F01914217D134
:1034E00047F6C071626A0140B1EB821F10D1A26A37
:1034F0004FF0FF3300F4403103EB5202B1EB024FC7
:1035000006D194F82C1000F07060B0EB016F01D080
:103510000120D1E70020CFE70438024000004742F5
:10352000800E4742007000400000FFFF7047704768
:1035300010B590F83C20012A22D0012280F83C20CE
:10354000CA688C6822F4407222434C6822F480627C
:1035500022430C6822F4006222430C6922F4805258
:1035600022434C6922F400522243C969002322F409
:1035700080420A4301684A6480F83C30002010BD54
:10358000022010BD70B590F83C20012A32D00124F1
:1035900080F83C40022280F83D2003685A689D680C
:1035A00022F070060A6832435A60134B02689A424E
:1035B00014D0B2F1804F11D0104B9A420ED0104B64
:1035C0009A420BD00F4B9A4208D00F4B9A4205D02B
:1035D0000E4B9A4202D00E4B9A4204D1496825F014
:1035E00080031943916080F83D40002180F83C1031
:1035F000084670BD022070BD00000140000400407C
:1036000000080040000C0040000401400040014060
:103610000018004010B5040003D094F83D0010B12C
:1036200007E0012010BD002084F83C00204600F097
:103630001FF8022084F83D00211D206802F004FCE0
:10364000012084F8460084F83E0084F83F0084F8A6
:10365000400084F8410084F8420084F8430084F874
:10366000440084F8450084F83D00002010BD0000AF
:1036700008B500680649884208D10648016841F04B
:1036800001010160006800F00100009008BD000029
:10369000000001404438024090F83D10012901D05B
:1036A00001207047022180F83D100168CA6842F08D
:1036B0000102CA6000681149884214D0B0F1804FFD
:1036C00011D00F4988420ED00E4988420BD00E49C6
:1036D000884208D00D49884205D00D49884202D061
:1036E0000C49884204D1816801F00701062903D002
:1036F000016841F0010101600020704700000140B5
:103700000004004000080040000C0040000401409C
:10371000004001400018004070B5044690F83C009D
:103720000025012817D0012684F83C60022084F887
:103730003D002068826822F0770222F47F42826096
:103740000868502838D00DDC20284FD005DC90B315
:10375000102811D14AE0022070BD302846D0402800
:103760000AD13BE060282FD070280DD0B0F5805FE3
:1037700003D0B0F5005F12D0012584F83D60002031
:1037800084F83C00284670BDCB68D1E9012120684F
:1037900002F0CBFB2068816841F0770109E0CB683B
:1037A000D1E90121206802F0C0FB2068816841F462
:1037B00080418160E1E719E0CA684968206802F049
:1037C00089FC5021206806E0CA684968206802F038
:1037D00092FC6021206802F0B2FBCEE7CA6849681B
:1037E000206802F077FC40212068F4E72268014657
:1037F0001046F0E7704770B50446006801694FF065
:103800000005C943890715D4C168C943890711D484
:10381000E91E016101202077206880698007204629
:1038200002D0FFF7E7FF04E000F0C2F8204600F006
:1038300054F9257720680169C943490717D4C1683D
:10384000C943490713D46FF00401016102202077B6
:103850002068806910F4407F204602D0FFF7CAFF3D
:1038600004E000F0A5F8204600F037F9257720683D
:103870000169C943090716D4C168C943090712D4AD
:103880006FF008010161042020772068C06980077B
:10389000204602D0FFF7AEFF04E000F089F8204692
:1038A00000F01BF9257720680169C943C90617D4C0
:1038B000C168C943C90613D46FF010010161082023
:1038C00020772068C06910F4407F204602D0FFF7BF
:1038D00091FF04E000F06CF8204600F0FEF8257738
:1038E00020680169C943C90708D1C168C943C9072C
:1038F00004D1891E0161204600F092F92068016917
:10390000C943090609D4C168C943090605D46FF043
:10391000800101612046FFF709FE20680169C94363
:10392000490609D4C168C943490605D46FF040016E
:103930000161204600F07BF920680169C9438906CE
:103940000BD4C168C943890607D46FF02001016117
:103950002046BDE87040FFF7EABD70BD10B586B0E7
:10396000044614216846FCF769FE0E492068884227
:1039700016D10D480021026842F010020260006872
:1039800000F0100005904FF4206000900220CDE977
:1039900001010120CDE9031069460448FFF724F92D
:1039A00006B010BD00000140303802400010024057
:1039B000704770B5044690F83C0000260D4601287B
:1039C0000FD0012084F83C006AB1042A1DD0082AD7
:1039D0002FD00C2A3FD00126002084F83C0030462E
:1039E00070BD022070BD206802F0B2FA20688169C3
:1039F00041F0080181612068816921F00401816141
:103A0000206881692A69114311E0206802F0D0FA28
:103A10002068816941F4006181612068816921F435
:103A200080618161206881692A6941EA022181619E
:103A3000D2E7206802F0F2FA2068C16941F008017B
:103A4000C1612068C16921F00401C1612068C169B8
:103A50002A69114311E0206802F014FB2068C16953
:103A600041F40061C1612068C16921F48061C161D4
:103A70002068C1692A6941EA0221C161ACE710B539
:103A8000040003D094F83D0010B107E0012010BD00
:103A9000002084F83C00204600F01EF8022084F844
:103AA0003D00211D206802F0CFF9012084F8460076
:103AB00084F83E0084F83F0084F8400084F8410018
:103AC00084F8420084F8430084F8440084F84500F8
:103AD00084F83D00002010BD7047704710B50446C3
:103AE000022249B104290ED0082913D094F84100CC
:103AF000012816D0012010BD94F83E000128F9D10C
:103B000084F83E200FE094F83F000128F2D184F8B9
:103B10003F2008E094F840000128EBD184F84020D1
:103B200001E084F841200122206802F0F1F91649F1
:103B30002068164A884201D0904203D1436C43F476
:103B4000004343642068884213D0B0F1804F10D006
:103B50000F4988420DD00F4988420AD00E49884249
:103B600007D0904205D00D49884202D00C498842C6
:103B700004D1816801F00701062903D0016841F0F2
:103B800001010160002010BD00000140000401405F
:103B90000004004000080040000C004000400140CC
:103BA0000018004030B504460D460068002202F0BF
:103BB000AFF9194B41F2111120688A10984202D0D6
:103BC000164B984209D1036A0B4206D1036A13428D
:103BD00003D1436C23F4004343642068036A0B421F
:103BE00006D1016A114203D1016821F0010101608F
:103BF00001203DB1042D08D0082D09D084F84100E2
:103C0000002030BD84F83E00FAE784F83F00F7E773
:103C100084F84000F4E70000000001400004014087
:103C20000068B0F1804F01D1FFF7E2B870477047EC
:103C300070477047F8B5016804460868CA684B6960
:103C400010F00F0F4FF000055AD003F0010602F4F8
:103C50009077374365D0C10705D0D10503D5216CD6
:103C600041F001012164410705D5D90703D0216C3A
:103C700041F002012164810705D5D90703D0216CE9
:103C800041F004012164010707D502F0200131430E
:103C900003D0216C41F008012164216C00293BD044
:103CA000800604D5900602D5204602F065FA206809
:103CB0004069216CC0F3801001F0080101432046E7
:103CC0002BD002F032FA20684069400621D52068E6
:103CD000143050E8001F21F0400140E80012002A93
:103CE000F5D1A06BA8B16C490165A06BFEF730FE61
:103CF000002811D0A06B016D01B0BDE8F04008476D
:103D000083060ED593060CD52046BDE8F84002F098
:103D100033BA2046FFF78DFFF8BDFFF78AFF256411
:103D2000F8BD266B2023012E79D1C60677D5D6069D
:103D300075D50868486800904869400640D5A16B71
:103D4000086840680004000CEAD0A28D8242E7D9DE
:103D5000E085C869B0F5807F2DD020680C3050E830
:103D6000001F21F4807140E80012002AF5D120687C
:103D7000143050E8001F21F0010140E80012002A31
:103D8000F5D12068143050E8001F21F0400140E8D0
:103D90000012002AF5D184F83E30256320680C30EB
:103DA00050E8001F21F0100140E80012002AF5D170
:103DB000A06BFEF784FDA08DE18D401A81B229E051
:103DC000A08DE18D401A81B2E08D0028A8D0002995
:103DD000A6D020680C3050E8002F22F4907240E802
:103DE0000026002EF5D12068143050E8002F22F074
:103DF000010240E80026002EF5D184F83E3025630C
:103E000020680C3050E8002F22F0100240E8002318
:103E1000002BF5D12046FFF70BFFF8BDFFE70506A5
:103E20002BD5150629D594F83D002128F5D1A06899
:103E3000B0F5805F01D12069B0B1206A411C2162D8
:103E4000216800784860E08C401E0004000CE0848B
:103E5000E3D12068C16821F08001C1602068C16899
:103E600041F04001C160D8E7206A0088C0F3080033
:103E70004860206A801C2062E5E74006CDD55006E8
:103E8000CBD5CA68204622F04002CA6084F83D3093
:103E900000F073F9C1E700001B61000870B5040071
:103EA00004D094F83D00002510B106E0012070BD5B
:103EB00084F83C50204600F023F8242084F83D008C
:103EC0002068C16821F40051C160204602F0B4F9B5
:103ED0002068016921F4904101612068416921F065
:103EE0002A0141612068C16841F40051C160256424
:103EF000202084F83D0084F83E00002070BD0000C2
:103F00002DE9F04F87B0054614216846FCF796FB73
:103F10008F488F49DFF834821038D5F800C002226C
:103F2000032300244F0506154FF4403BC4456AD1D6
:103F3000D1F800C04CF4801CC1F800C0096801F43D
:103F400080110591016841F004010160016801F0F0
:103F500004010591016841F0080101600068CDE9A4
:103F6000024300F008000590D002CDE900024FF0B6
:103F70000808924699466946CDF810807548FEF7C4
:103F800033FE0420CDE9000ACDE902496946CDF8A7
:103F900010807148FEF728FEDFF8C4816F49404663
:103FA000C8F80010C0E90174C0E90346C8F814401D
:103FB000C8F81840C8E9074BBA46D946C8F82440A3
:103FC000FEF7A8FD08B1FDF7E4FC654F6348C5F8AE
:103FD00038806037A830C8F83850E7E8020A402037
:103FE00051C75F4847F814496030BC61C7E90749C9
:103FF0007C62FEF78FFD08B1FDF7CBFC6F63BD63FC
:1040000007B0BDE8F08FDFF85C814FF007094FF48F
:10401000807AC4453DD1D1F800C04CF4003CC1F8D1
:1040200000C0096801F400310591016841F0010107
:1040300001600068694600F0010005900C208DE8E1
:104040001500CDE903394848FEF7CEFDDFF81081B1
:10405000424908F1C0084046783102C0E0E80274E5
:10406000E0E8034640F8044C80E8100C4046C8F8ED
:104070002440FEF74FFD08B1FDF78BFCC5F83880F2
:10408000002205212620C8F83850FEF75BFF2620C5
:1040900059E0DFF8D880C445B2D1D1F800C04CF463
:1040A000802CC1F800C0096801F4802105910168E5
:1040B00041F0020101600068694600F002000590CD
:1040C0004FF440608DE81500CDE903392848FEF72C
:1040D0008BFD2249DFF89C8018314046C8F800105B
:1040E000C0E90174C0E90346C8F81440C0E9064AB3
:1040F0004FF4003AC8E908A4B946FEF70BFD08B131
:10410000FDF747FC1B4F1548C5F83880603748302D
:10411000C8F83850E7E80209402051C7154847F869
:1041200014496030BC61C7E9074A7C62FEF7F2FCC3
:1041300008B1FDF72EFC6F63002205212720BD6327
:10414000FEF700FF2720FEF7EFFE59E70050004082
:104150004038024000080240000C0240106002405B
:1041600024080020004400400000024000480040B5
:10417000000402404409002070477047FEE7000039
:1041800070B50D4C0025C4F8B4520C48016821F0FC
:1041900040410160016841F080410160C4F8BC52B7
:1041A000022004F52D7404F021FB01202060022080
:1041B00004F01CFB256070BD0080404200040240FA
:1041C00070B50D4C0025C4F8B4520C48016821F0BC
:1041D00040410160016841F0804101600126C4F85E
:1041E000BC62022004F52D7404F000FB266002205E
:1041F00004F0FCFA256070BD0080404200040240DB
:104200002DE9F047814616480024016821F040411D
:10421000016001680160134E254627464FF00108F2
:10422000C6F8B472022004F0E1FAC6F8B48260065F
:10423000040ED6F83C0208B1641CE4B2012004F07C
:10424000D5FA6D1CEDB2082DEAD3B9F1000F04D0F8
:10425000FFF796FF2046BDE8F087FFF7B1FFF9E7CB
:1042600000040240008040422DE9F0410646144817
:10427000016821F040410160016841F08041016026
:10428000104C0027C4F8B4723D464FF00108F00905
:10429000C4F8BC027006060E022004F0A7FAC4F8A7
:1042A000B482022004F0A2FAC4F8B472022004F02E
:1042B0009DFA6D1CEDB2082DE9D3BDE8F081000038
:1042C000000402400080404270B50D48016821F0B2
:1042D00040410160016841F080410160094C0120CA
:1042E000C4F8BC02C4F8B402042004F52D7404F030
:1042F0007DFA0025A560042004F078FA256070BDE1
:1043000000040240008040420E4810B5016821F0D0
:1043100040410160016841F0804101600A4C002089
:10432000C4F8B402C4F8BC02042004F52D7404F0EF
:104330005DFA01202060A060BDE81040042004F078
:1043400055BA0000000402400080404270B5124897
:104350000024016821F040410160016801600F4DB7
:104360000126C5F8BC62304604F040FAC5F8B462D4
:10437000012004F03BFA07E0641CE4B2FA2C03D9F4
:10438000FFF7C2FF012070BDD5F83C020028F3D131
:10439000C5F8B40270BD0000000402400080404235
:1043A00001488168084700002C010020014881680D
:1043B00008470000E4000020014881680847000029
:1043C00018020020034C034861698847012005F06A
:1043D00077FDF8E7F40200201E4810B5417A022963
:1043E00011D0B0F90A0010F5967F0CDABFF34F8FA9
:1043F00019480168194A01F4E06111430160BFF3F3
:104400004F8F00BFFDE700F0F7F800F00DFA00F065
:104410003BF900F095F800F057F800F0B5FA00F01D
:1044200095F900F00BFB00F0F9FA0D480068C08A1E
:10443000410707D4C10705D1010703D4800701D480
:1044400000F00CFB00F07CFA00F0BEF9BDE8104073
:1044500000F04CBAA00000200CED00E00400FA05CA
:10446000E400002070B515460E460446C171FDF704
:1044700092FA00206A1CAEB1012E21D16179032984
:104480001FD02068401C2060A84219DB0121217147
:104490006171904214DB02212171617198420FDB3E
:1044A00003200BE0617961B12168491C2160A942B8
:1044B00006DB042323716371914201DB207160717B
:1044C00070BD206070BD000070B5184C4FF4FA73D9
:1044D00005222068C08AC10B1548FFF7C3FF1448A6
:1044E00000216838134A90F86C50134B1348042D80
:1044F00008D2DFE805F007020812216811F8390F29
:10450000401C087070BD1288012AFBD11A88032A4A
:10451000F8D101220281018070BD1288012AFBD1ED
:104520001A88032AF8D1018170BD0000E400002040
:104530000814002050010020520100209015002096
:1045400070B5254890ED070AB5EEC00AF1EE10FAF5
:1045500001DCB1EE400A224C10EE101A1F4A002571
:104560002068914204DA90F8371009B180F837508A
:10457000C08A4FF4FA73C0F3403105221948FFF79F
:1045800071FF1848583890F85C0002281BD2DFE809
:1045900000F01A01206880F8305080F8315090F80F
:1045A000371089B15FF0000180F837100E4869B10B
:1045B00090ED000ADFED0D0A0D4930EE600A80ED46
:1045C000000A0120887070BD0121EDE7094991EDD5
:1045D000000A80ED000A70BD4C0A00200000A040D7
:1045E000E4000020F8130020601500200000344390
:1045F000F80300201400002010B5224CA4F174032D
:104600002068807DC00703D093ED000A012102E0FD
:1046100093ED010A00211B48543800F0C1FF2068C7
:10462000807D800703D593ED000A012102E093ED20
:10463000010A00211348503800F0B2FF2068807D45
:10464000400703D593ED000A012102E093ED010A32
:1046500000210C484C3800F0A3FF2068807D000743
:1046600003D593ED000A012102E093ED010A002138
:104670000448483800F094FF01F07EFFBDE8104088
:10468000FCF710B9E400002070B5274890ED070A48
:10469000B5EEC00AF1EE10FA01DCB1EE400A244C8E
:1046A00010EE101A214A00252068914204DA90F891
:1046B000311009B180F83150807D4FF4FA73C0F3A6
:1046C000C01105221B48FFF7CDFE1A481A492838A9
:1046D00090F82C00022803D2DFE800F001034D819E
:1046E00070BD206880F8305090F83120A2B10022CF
:1046F00000F8312F8571114882B190ED000ADFED8D
:10470000100A30EE600A80ED000A0E480088022888
:10471000E6D10120488170BD0122E9E70A4991ED07
:10472000000A80ED000A70BD4C0A00200000A04085
:10473000E4000020C8130020F803002060150020CA
:104740000000B442520100201400002010B5194CA2
:104750004FF4FA7305222068C08AC0F3402116483E
:10476000FFF780FE14481549383890F83C2014486B
:10477000032A0AD2DFE802F0020A1200098800299F
:1047800003D1226882F83310C17010BD0120088067
:10479000216811F8330F401C087010BDC178491C06
:1047A000C9B20322B1FBF2F302FB1311C170054839
:1047B000018010BDE4000020D81300204C0100202F
:1047C000F80300204E01002070B51248E6230522B0
:1047D0000068017D1048FFF745FE0F480122803830
:1047E0000E4990F884400E4B0020042C09D2DFE8DB
:1047F00004F002090C0E5A7802B948800949187071
:10480000088070BD08810A8070BD1A7070BD187074
:104810004A8070BDE4000020201400209015002084
:10482000F80300208801002070B5274890ED070AA2
:10483000B5EEC00AF1EE10FA01DCB1EE400A244CEC
:1048400010EE101A214A00252068914204DA90F8EF
:10485000301009B180F83050807D4FF4FA73C0F306
:10486000801105221B48FFF7FDFD1A481A49203820
:1048700090F82400022803D2DFE800F001030D8144
:1048800070BD206890F83020AAB1002200F8302FC7
:104890004570C571114882B190ED000ADFED100A34
:1048A00030EE200A80ED000A0E4800880228E7D189
:1048B0000120088170BD0122E8E70B4991ED000A53
:1048C00080ED000A70BD00004C0A00200000A040EE
:1048D000E4000020C0130020F80300206015002031
:1048E0000000B4425201002014000020104810B50E
:1048F00000684FF4FA730522C08AC0F300210D4806
:10490000FFF7B0FD0B48002130380C4A90F83430E6
:104910000948042B04D2DFE803F0030204080181F4
:1049200010BD01215170018000E05170418010BD27
:10493000E4000020D013002090150020F803002090
:104940000E4810B500684FF4FA730522807DC0F35D
:1049500000110B48FFF786FD094800217838012235
:1049600090F87C300748022B04D2DFE803F0010402
:104970008171C27110BD8271C17110BDE40000204F
:1049800018140020F803002070B51F4D4FF4FA737F
:1049900005222868C08AC0F380311C48FFF762FDF9
:1049A0001A481C4C603890F86410194803290FD23B
:1049B000DFE801F00E0211000088032808D1286802
:1049C00010F8381F491C0170607910B10020607127
:1049D00070BD0120FBE721790129F9D10088032866
:1049E000F6D10D4DB5F90000A0F57A7000EE100A71
:1049F000B8EEC00A00F086F8BDEEC00A10EE100A4C
:104A000028800020207170BDE400002000140020E8
:104A100052010020F80300204A01002005484FF40D
:104A2000FA7305220068C08AC0F300310248FFF71C
:104A300019BD0000E4000020F013002005484FF4E9
:104A4000FA7305220068C08AC0F3C0210248FFF74C
:104A500009BD0000E4000020E813002070B52148E3
:104A60004FF4FA7305220068807DC0F340111E48A0
:104A7000FFF7F8FC1C480021703890F874201B48A0
:104A8000042A0ED2DFE802F00D02102B184A138917
:104A9000012B07D00088022803D1164941F2CC200F
:104AA000888370BD118170BD032202801248134CAF
:104AB000018020790028F6D1114DB5F9000000F5EC
:104AC0007A7000EE100AB8EEC00A00F01BF8BDEED6
:104AD000C00A10EE100A28800120207170BD02214A
:104AE000018070BDE400002010140020520100205D
:104AF00090150020601500204C010020F8030020D4
:104B00004A010020DFED080AB5EEC00AF1EE10FA06
:104B100002D230EE200A704710EE100A0349884294
:104B2000F9DB30EE600A704700F8FF4500F8FF45FA
:104B300030B5144D192214496A700024A0F20120E6
:104B40004A70062808D2DFE800F003080B0E1115A2
:104B50000E4804F0F3F92C7030BD0C4820300CE006
:104B60000A48403009E00948603006E007480C7008
:104B7000803002E005480C70A030BDE8304004F001
:104B8000DDB9000060000020630000209C150020BB
:104B900030B500240D4DA0F50070013809D0012872
:104BA0000DD002280AD1AC70BDE83040084804F0AE
:104BB00035BB0748203804F031FB6C7030BD044829
:104BC000403804F02BFB2C7030BD00006600002044
:104BD0009C16002070B50546FFF776FB0F4C207839
:104BE0004006000EFFF740FBFFF7B0FB2846FFF73B
:104BF0003BFBFFF7ABFBFFF767FB2078012101EBE5
:104C00004000C0B2FFF730FBFFF7A0FB0020FFF72A
:104C1000F7FA0446FFF778FB204670BDE803002052
:104C20002DE9F04116460D460746FFF74DFB134CA4
:104C300020784006000EFFF717FBFFF787FB38468A
:104C4000FFF712FBFFF782FBFFF73EFB2078012105
:104C500001EB4000C0B2FFF707FBFFF777FB002432
:104C600006E00120FFF7CCFA641C05F8010BE4B262
:104C7000B442F6D3BDE8F041FFF746BBE80300209D
:104C8000104810B50E4901600321416000214FF426
:104C900000228160C0E903124FF4401242610176A4
:104CA000012242768176C17601774277FDF7B5FC25
:104CB000002803D0BDE81040FCF76BBE10BD00001B
:104CC00000640040C0060020104810B50E49016085
:104CD0000321416000214FF400228160C0E90312EA
:104CE0004FF440124261017641768176C1760177B8
:104CF00001214177FDF791FC002803D0BDE8104069
:104D0000FCF747BE10BD000000680040E806002028
:104D1000194808B5016841F40011016000680022DB
:104D200000F40010009005210B20FEF70BF90B207A
:104D3000FEF7FAF8002205210C20FEF703F90C20FB
:104D4000FEF7F2F8002205210E20FEF7FBF80E20F8
:104D5000FEF7EAF8002205211020FEF7F3F81020F4
:104D6000FEF7E2F8002205212F20FEF7EBF8BDE860
:104D700008402F20FEF7D8B83038024010B5C0B038
:104D80001C2232496846FBF705FC0021684605F005
:104D9000A4F82F4C2D491C2220601C3107A8FBF7DA
:104DA000F9FB002107A805F098F8284960601C224B
:104DB00038310EA8FBF7EEFB00210EA805F08DF8A8
:104DC0002249A0601C22543115A8FBF7E3FB002107
:104DD00015A805F082F81D49E0601C2270311CA85E
:104DE000FBF7D8FB00211CA805F077F817492061D4
:104DF0001C228C3123A8FBF7CDFB002123A805F052
:104E00006CF8124960611C22A8312AA8FBF7C2FB8A
:104E100000212AA805F061F80C49A0611C22C431C8
:104E200031A8FBF7B7FB002131A805F056F8074978
:104E3000E0611C22E03138A8FBF7ACFB002138A868
:104E400005F04BF8206240B010BD0000A0E700085C
:104E5000180000202DE9F04186B014216846FBF7C8
:104E6000EDFB2B480024016841F00401016001685A
:104E700001F004010591016841F0800101600168C1
:104E800001F080010591016841F0010101600168B4
:104E900001F001010591016841F010010160016814
:104EA00001F010010591016841F002010160016803
:104EB00001F002010591016841F0080101600068FC
:104EC000144F00F008004FF4D84505900022294601
:104ED0003846FDF781FFDFF840804FF4204600227E
:104EE00031464046FDF778FF00950125CDE9015494
:104EF000694638460394FDF777FE0096CDE90154E4
:104F0000694640460394FDF76FFE06B0BDE8F081A8
:104F100030380240000802400004024010B596B04C
:104F200000240F9410941194129413941C21684639
:104F30001494FBF783FB202107A8FBF77FFB2D4888
:104F40002B49016040F28F61C0E9011440F2E73162
:104F5000C0E9031444618461FEF75CFB08B1FCF70F
:104F600018FD4FF480500F900FA92248FEF7D4FB94
:104F700008B1FCF70EFD1F48FEF781FD08B1FCF7F4
:104F800008FD139413A91B481494FEF7FBFA08B10B
:104F9000FCF7FFFC6020CDE9000402940394049424
:104FA00005940022694613480694FEF702FD08B1F5
:104FB000FCF7EFFC042269460E48FEF7FAFC08B144
:104FC000FCF7E7FC0794089409944FF400500A9406
:104FD000CDE90B4007A907480E94FEF7A9FA08B1DE
:104FE000FCF7D7FC0348FEF7B9FC16B010BD000073
:104FF00000000140100700200C4810B50A4901606C
:105000004FF4E1314160002181600C22C160C0E9B0
:1050100004128161C161FEF741FF002803D0BDE8A1
:105020001040FCF7B6BC10BD0050004058070020EF
:105030000C4810B50A4901600B49416000218160AC
:105040000C22C160C0E904128161C161FEF726FF34
:10505000002803D0BDE81040FCF79BBC10BD000049
:10506000004400409C070020A08601000C4810B5B9
:105070000A4901604FF4E1314160002181600C2256
:10508000C160C0E904128161C161FEF707FF002819
:1050900003D0BDE81040FCF77CBC10BD00480040C8
:1050A000E0070020FEE7000070B51C4CDFED1C0A95
:1050B000A4F17405206890ED080A85ED050AB0F9A1
:1050C0000E00B0F5967F02DDB0EE600A06E000EE5D
:1050D000100A1448B8EEC00A00F054F9F2EE050ABE
:1050E00095ED051A60EE200ADFED0F1A20680F4AD1
:1050F00041EE210A10EE901AC0ED080A914203DD3C
:10510000DFED0B0AC0ED080A10EE901A094A914231
:1051100003D9DFED090AC0ED080A70BDE4000020E4
:1051200000000000481400209A99993E0000254490
:1051300000002544000025C4000025C470B5284C9B
:105140002DED028BA4F1740520689FED268A90ED69
:10515000090A85ED060AB0F91000B0F5967F02DD68
:10516000B0EE480A0AE000EE100AF0EE480A1E48C7
:10517000B8EEC00A00F006F9B1EE400AF1EE0C0AF2
:1051800095ED061A60EE200ADFED181A2068184A1D
:1051900041EE210A10EE901AC0ED090A914203DD9A
:1051A000DFED140AC0ED090A10EE901A124A91427E
:1051B00003D9DFED120AC0ED090AB0EE601AB5EEB0
:1051C000C01AF1EE10FA01DCB1EE601A11EE101AFD
:1051D000B1F17E5F01DA80ED098ABDEC028B70BD12
:1051E000E400002000000000841400209A99993EF9
:1051F0000000254400002544000025C4000025C40B
:10520000FEE7C0E9101280EC030A704710B50421D4
:105210000348FEF763FC03490020886310BD0000CB
:10522000100700200000014070B5354D354E0024B8
:10523000287E012810D0002841D1FDF7D3FD306031
:10524000301FFBF757FB301F0178C9B34178B9B362
:105250008078A8B300F0DEFDFDF7C4FD3168401A88
:10526000B0F57A7F02D205F0CFFA1BE0FDF7BAFD68
:105270003168401A41F29411884213D200231A4631
:1052800019461846FBF7BCFE00231A461946184675
:10529000FBF7DAFE00231A4619461846FBF7F8FE1C
:1052A000FBF720FF184807F04DFB1848048018480A
:1052B00090ED150A1748B8EEC00A80ED000A70BDDF
:1052C000FFE72968144A154B087A154D032808D0C2
:1052D000022809D001280BD0487A0228EFD02C7080
:1052E000EDE71480032001E0148002201880F6E727
:1052F000497A0120022901D01080F0E72870DEE70A
:10530000E4000020F4030020901500204C01002050
:105310005C160020A4010020500100205201002052
:105320006C0100200268002111800268518002682F
:1053300091800268D180036804221A7203685A724D
:105340000268D18102681182026851820268117577
:10535000026851750268D1820268518100688181BA
:105360007047000010B5064C01462046E2689047A1
:1053700021692046884721680020C88710BD0000A9
:10538000E40000205FF00E0100EB8102491E12EDE7
:10539000011A002982ED001AF6DC80ED000A0021D6
:1053A00000EB8102491C92ED000A0F2970EE200AE1
:1053B000F6DBB2EE0E1A80EE810A704770B58EB041
:1053C0000646002502468DF800500121684602F08D
:1053D00061FB02F073FA32460121042002F01AFE4A
:1053E000044602F06BFA84B90C208DF8020002200A
:1053F0008DF8030001208DF805508DF8040001465A
:105400003246684602F010FF04460EB0204670BDDA
:1054100070B58EB00124064602468DF80040214644
:10542000684602F037FB02F049FA324602210420B6
:1054300002F0F0FD054602F041FA95B90C208DF816
:10544000020000208DF8060002208DF803008DF880
:1054500007408DF8044032460121684602F0E4FE20
:1054600005460EB0284670BD154810B50068B0F866
:105470006C10B0F84F000C1A1248B0F90220B0F9C5
:105480000410B0F9063010480BD4012A03D19FED67
:105490000F0A80ED070A012911D1012B0FD100213C
:1054A0000CE014F10A0F0ADA012A03D19FED080A71
:1054B00080ED070A012902D1012B00D1018210BD24
:1054C000F40200209015002084010020000000005C
:1054D00000C0A8C5284810B5B0F85100274B00EE11
:1054E000100A27490020B8EE400A83ED0E0A91F811
:1054F00020202449012A18D0FCEEC00A10EE902A80
:1055000094B2214A142C14D005DC6CB30F2C0CD0AF
:10551000122C04D10BE0162C0ED01E2C0ED010EE47
:10552000100A1A4988420BDB08E008461CE01848BC
:105530001AE01748FA3817E0164815E0104613E04D
:10554000B5EEC00AF1EE10FAF8D0F2EE0E0A9FEDB9
:10555000121A70EE600A9FED110A00EE810ABDEE8C
:10556000C00A10EE100A00B200EE100AB8EEC00A2F
:1055700083ED060A10BD00003402002084010020E3
:10558000F4020020D0EEFFFF94E4FFFF0000204271
:10559000A4EDFFFFB0EBFFFF0000DC42008089C5F7
:1055A000D0ED000A11B130EE800A01E030EEC00A01
:1055B0000A4A10EE101A80ED000A914203DD9FEDB9
:1055C000080A80ED000AB5EEC00AF1EE10FA03D227
:1055D0009FED040A80ED000A7047000000007A4445
:1055E00000007A44000000002DE9F047FE4F044619
:1055F0002DED048B3868FD4DB0F90A10B1F5FA7F36
:1056000004DD027A032A01D10122AA8011F5FA7F72
:1056100004DA017A032901D10021A980A988F44E76
:1056200040F2CD2941F2CC28DFEDF28A9FEDF28ADB
:10563000002975D1F14AB5F902102980B2F9082084
:1056400041456FD1B5F9083013B1012B0FD016E0E9
:10565000B0F9063000EE103AB8EEC00A84ED0E0A3A
:10566000B0F9043000EE103AB8EEC00A05E090ED53
:10567000070A84ED0E0A90ED060A84ED0F0A012A4E
:105680000DD1D0ED070A9FEDDE0A60EE800AC4ED71
:105690000E0AD0ED060A20EE800A84ED0F0AB6F954
:1056A0008800081A00EE100AB8EEC00A85ED060A56
:1056B00020EE080A20EE280A10EE100A08F0F4FF87
:1056C00041EC100B01F020FC51EC100B08F022FA19
:1056D000A06595ED060A20EE080A20EE280A10EED5
:1056E000100A08F0E1FF41EC100B01F0A9FB51ECAE
:1056F000100B08F00FFA00EE100A84ED170AD4ED33
:105700000E0A94ED161AD4ED0F1A20EE802A60EEE0
:10571000810A01EEC12A41EE800A84ED0B2AE8E0FD
:10572000B9E0FFE7494576D1B5F9083013B1012B4F
:1057300011D01CE0B0F906305B4200EE103AB8EE32
:10574000C00A84ED0E0AB0F904305B4200EE103A54
:10575000B8EEC00A09E090ED070AB1EE400A84ED08
:105760000E0A90ED060AB1EE400A84ED0F0A012AF6
:105770000DD1D0ED070A9FEDA30A60EE800AC4EDBB
:105780000E0AD0ED060A20EE800A84ED0F0AB6F963
:105790008800081A00EE100AB8EEC00A85ED060A65
:1057A00020EE080A20EE280A10EE100A08F07CFF0E
:1057B00041EC100B01F0A8FB51EC100B08F0AAF91A
:1057C000A06595ED060A20EE080A20EE280A10EEE4
:1057D000100A08F069FF41EC100B01F031FB51ECAD
:1057E000100B08F097F900EE100A84ED170AD4EDBB
:1057F0000E1AD4ED0F0A94ED161A21EE802A00EE4F
:10580000C12A21EE811A00EE801A84ED0B2A84ED64
:105810000C1A70E0FFE77C4A1278E2BB2A89012A61
:1058200069D1A1F56062E43A06D001F580711B31BF
:105830000FD095ED050A23E090ED070A84ED100ADC
:1058400090ED060A84ED110AB6F98800A8EB000075
:1058500010E090ED070AB1EE400A84ED100A90EDD9
:10586000060AB1EE400A84ED110AB6F98800A0F2EA
:10587000CD20404200EE100AB8EEC00A85ED050AC0
:1058800020EE080A20EE280A10EE100A08F00CFF9D
:1058900041EC100B00E02EE001F036FB51EC100B58
:1058A00008F038F9A06495ED050A20EE080A20EE0C
:1058B000280A10EE100A08F0F7FE41EC100B01F078
:1058C000BFFA51EC100B08F025F900EE100A84ED38
:1058D000130AD4ED101A94ED111AD4ED120A21EE28
:1058E000802A01EE602A61EEA00A41EE000A84EDF2
:1058F0000B2AC4ED0C0AA888012874D1B5F9080058
:1059000010B1012828D0ADE0B5F9000040450BD119
:105910003868B0F9061000EE101AB8EEC00A84ED2F
:10592000140AB0F904000EE0484512D13868B0F905
:105930000610494200EE101AB8EEC00A84ED140AAF
:10594000B0F90400404200EE100AB8EEC00A84ED3F
:10595000150A9FED2E0A19E0386890ED070A84EDCC
:10596000140A90ED060A84ED150AB5F9060040B157
:10597000012809D0F0EE009A9FED259A022808D060
:1059800070E09FED240A01E09FED230A84ED0D0AEB
:1059900068E095ED040AF7EE000A30EE200A85ED86
:1059A000040AC0EE090A20EEA90A20EE080A10EE49
:1059B000100A08F079FE41EC100B01F0A5FA9FEDFA
:1059C000171B51EC100B53EC112B08F075FC95EDE7
:1059D000040AC0EE090A20EEA90A20EE080A10EE19
:1059E000100A26D21EE081E0E400002048010020D9
:1059F0009C15002000008039560E4940901500206B
:105A0000CDCCCC3DCDCCCCBDFC0300200000AF43C1
:105A10000000FA44000048430000FA430000000080
:105A20000000000008F040FE41EC100B01F06CFAA1
:105A30000BE008F039FE41EC100B01F065FA51EC77
:105A4000100B08F05BF841EC100B51EC100B08F058
:105A500061F8606327492869884203DB9FED260AC5
:105A600085ED040AB6F98800B5F90010081A00EEB1
:105A7000100AB8EEC00A85ED060A20EE080A20EEEC
:105A8000280A10EE100A08F00FFE41EC100B01F08E
:105A90003BFA51EC100B08F03DF8A06595ED060AB5
:105AA00020EE080A20EE280A10EE100A08F0FCFD8D
:105AB00041EC100B01F0C4F951EC100B08F02AF87E
:105AC00000EE100A84ED170AD4ED140A94ED161AAC
:105AD000D4ED151A20EE802A60EE810A01EEC12A6B
