:020000040800F2
:1000000030610020310300089D6100084D4E00085A
:10001000A15F00089D110008517C0008000000004D
:100020000000000000000000000000007102000855
:100030006B1F000800000000CD020008A573000837
:100040004B0300084B0300084B0300084B03000858
:100050004B0300084B0300084B0300084B03000848
:100060004B0300084B0300084B030008911B0008DA
:100070009D1B00084B030008A91B00084B03000848
:10008000B51B00084B0300084B0300084B03000896
:10009000C91100084B0300084B0300084B0300087C
:1000A0004B0300084B0300084B0300084B030008F8
:1000B000A17400084B0300084B0300084B03000821
:1000C0004B0300084B0300084B0300084B030008D8
:1000D0004B0300084B030008757A0008CD7A00082E
:1000E0004B0300084B0300084B0300084B030008B8
:1000F0004B0300084B0300084B030008C11B00081A
:100100004B0300084B0300084B0300084B03000897
:100110004B030008817700084B0300084B030008DD
:100120004B0300084B0300084B0300084B03000877
:100130004B0300084B0300084B0300084B03000867
:10014000191200084B0300084B0300084B0300087A
:100150004B0300084B0300084B0300084B03000847
:100160004B0300084B0300084B0300084B03000837
:100170004B0300084B0300084B030008000000007D
:100180004B0300084B03000800F002F800F060F891
:100190000AA090E8000C82448344AAF10107DA45E2
:1001A00001D100F055F8AFF2090EBAE80F0013F0D4
:1001B000010F18BFFB1A43F001031847B0350100C7
:1001C000D03501000A444FF0000C10F8013B13F049
:1001D000070408BF10F8014B1D1108BF10F8015BA0
:1001E000641E05D010F8016B641E01F8016BF9D193
:1001F00013F0080F1EBF10F8014BAD1C0C1B09D1EA
:100200006D1E58BF01F801CBFAD505E014F8016B5B
:1002100001F8016B6D1EF9D59142D6D370470000ED
:100220000023002400250026103A28BF78C1FBD8FF
:10023000520728BF30C148BF0B6070471FB510F090
:10024000BBFD9DE8030000F03FFA1FBD10B510BDD7
:1002500000F0BEFA1146FFF7F1FF0BF0A1F900F034
:10026000DCFA03B4FFF7F2FF03BC00F013FB00005D
:100270002C4B19680868B0E8F04F80F30988BFF389
:100280006F8F4FF0000080F311887047000000006E
:1002900008480068006880F308884FF0000080F389
:1002A000148862B661B6BFF34F8FBFF36F8F00DF64
:1002B00000BF00BF08ED00E0DFF80C00016841F46A
:1002C00070010160704700BF88ED00E0EFF3098026
:1002D000BFF36F8F134B1A681EF0100F08BF20ED8D
:1002E000108A20E9F04F106009B44FF0500080F3FD
:1002F0001188BFF34F8FBFF36F8F0EF045FE4FF0A5
:10030000000080F3118809BC19680868B0E8F04F54
:100310001EF0100F08BFB0EC108A80F30988BFF3FD
:100320006F8F7047C0040020EFF305807047000016
:100330000948804709480047FEE7FEE7FEE7FEE779
:10034000FEE7FEE7FEE7FEE7FEE7FEE704480549B5
:10035000054A064B704700006974000889010008CF
:10036000305B002030610020305D0020305D0020D7
:1003700070B5064600F08CF9056806F10B0020F018
:100380000704B4429CBF002070BD2B466A68BAB116
:100390001068A04210D304F1080188423CBF5068A5
:1003A000586007D35168101941601168091B01603A
:1003B00058601460101D70BD13465268002AE7D1C2
:1003C0002146284600F06CF90028DED170BD70B5DA
:1003D0000446051F00F05CF90068002C14BF446857
:1003E00070BD002C18BFAC423CBF20466468F8D3F7
:1003F00001680A18AA4218BF456003D12A68054659
:100400001144016028684119A1421CBF6C6070BD95
:100410006168696021680844286070BD53EA020C75
:1004200000F069802DE9F04B4FF00006002B1FBF54
:10043000B3FA83F503FA05F424FA05F65E4012BF19
:100440001643B2FA82F502FA05F4C5F120051EBF83
:1004500022FA05FC44EA0C04203556EA044C4FEA23
:10046000144418BF641C4FF000084FF0000990427C
:1004700071EB030C39D3002919BFB1FA81F701FAE6
:1004800007F6B0FA80F700FA07F6C7F120071EBF9B
:1004900020FA07FC46EA0C062037B6FBF4FCA7EB73
:1004A0000507103F07F01F0BCBF120060CFA0BFBE2
:1004B0002CFA06F644BFB3460026202FA4BF5E46A2
:1004C0004FF0000B5BEA060C08BF4FF0010B19EB75
:1004D0000B09ABFB027C48EB0608C01B06FB02CCF9
:1004E0000BFB03CC71EB0C01C1E70B460246414606
:1004F0004846BDE8F08B13B54FF000004FF0000107
:10050000AFF30080BDE81C407047032A40F2308002
:1005100010F0030C00F0158011F8013BBCF1020F44
:10052000624498BF11F801CB00F8013B38BF11F8C5
:10053000013BA2F1040298BF00F801CB38BF00F8DC
:10054000013B11F0030300F02580083AC0F0088059
:1005500051F8043B083A51F804CBA0E80810F5E73D
:10056000121D5CBF51F8043B40F8043BAFF3008020
:10057000D20724BF11F8013B11F801CB48BF11F895
:10058000012B24BF00F8013B00F801CB48BF00F865
:10059000012B704710B5203AC0F00B80B1E818501D
:1005A000203AA0E81850B1E81850A0E81850BFF45D
:1005B000F5AF5FEA027C24BFB1E81850A0E81850FC
:1005C00044BF18C918C0BDE810405FEA827C24BF50
:1005D00051F8043B40F8043B08BF7047D20728BFDE
:1005E00031F8023B48BF11F8012B28BF20F8023B2D
:1005F00048BF00F8012B70474FF000020429C0F0FB
:10060000128010F0030C00F01B80CCF1040CBCF144
:10061000020F18BF00F8012BA8BF20F8022BA1EB96
:100620000C0100F00DB85FEAC17C24BF00F8012B7B
:1006300000F8012B48BF00F8012B70474FF0000273
:1006400000B5134694469646203922BFA0E80C50C8
:10065000A0E80C50B1F12001BFF4F7AF090728BFA3
:10066000A0E80C5048BF0CC05DF804EB890028BF1F
:1006700040F8042B08BF704748BF20F8022B11F048
:10068000804F18BF00F8012B7047704770477047C4
:1006900000487047D45A0020704770477047704731
:1006A00038B504460A4600206946AFF300800028AA
:1006B00008BF38BD02460099204600F04FF80120DF
:1006C00038BD012000F07CB8F8B5AFF300800546D6
:1006D00000200C46102000BF0646A819A0420DD9E4
:1006E000324669460020AFF30080070008BF00F0E3
:1006F00067F80098A04218BF0546C419FFF7C8FF65
:1007000005600746F01D20F007004619284600F056
:100710000AF8B44208BFF8BDA21B31463868BDE8EC
:10072000F84000F01BB800210160C0E901107047DB
:100730001020704710B500F00DF8006810BD10B51E
:10074000044600F007F8046010BD00000048704740
:10075000CC5A002000487047CC5A0020034640681D
:100760008C46002818BF88423CBF03464068F8D337
:1007700018681844884207D00CF1030020F00700E5
:10078000001D411A521A0146081D0A60FFF71FBEDC
:100790001FB584B000200A9C06AB04AA02A90094ED
:1007A000AFF3008018B1DDE9020108B010BD0348C5
:1007B000204000F040F800200146F6E70000207CD1
:1007C00010B500F03FF8BDE8104000F02FB87047BA
:1007D0007546FFF7BBFFAE4605006946534620F05D
:1007E0000700854618B020B5FFF7B0FDBDE82040F2
:1007F0004FF000064FF000074FF000084FF0000BDD
:1008000021F00701AC46ACE8C009ACE8C009ACE88F
:10081000C009ACE8C0098D46704710B50446AFF377
:1008200000802046BDE81040FFF71BBD002801D026
:1008300000F030B8704710B500F04CF8BDE810403B
:10084000FFF7F4BF10B5012805D0002103A000F088
:1008500027F8012010BD09A1F8E7000053494752CD
:10086000544D454D3A204F7574206F662068656180
:1008700070206D656D6F7279000000003A20486548
:100880006170206D656D6F727920636F7272757023
:100890007465640001491820ABBEFEE72600020023
:1008A00070B505460C460A2000E06D1C00F068F8A3
:1008B00035B128780028F8D102E0641C00F060F817
:1008C00014B120780028F8D1BDE870400A2000F06B
:1008D00057B8000010B5022803D0410103D50DA17F
:1008E00012E0002010BD010101D50FA10CE0C100F4
:1008F00001D511A108E0810001D512A104E040005A
:1009000001D513A100E0002115A0FFF7C9FF0120C8
:1009100010BD0000496E76616C6964204F7065728D
:100920006174696F6E0000004469766964652042F5
:1009300079205A65726F00004F766572666C6F772A
:1009400000000000556E646572666C6F77000000F1
:10095000496E657861637420526573756C7400002C
:100960005349474650453A2041726974686D657431
:10097000696320657863657074696F6E3A20000062
:1009800008B569468DF800000320ABBE08BD000025
:10099000114890ED0C0AD0ED0B0A30EE600ABDEE66
:1009A000C00A10EE100A00B200F57A71B1F5FA6FC4
:1009B00006D9002802DD4FF47A7001E000DA07481A
:1009C00000EE100A044800F17800B8EEC00A006892
:1009D00080ED060A704700007000002018FCFFFF41
:1009E000134800B50068407D00B301F059FBE8B141
:1009F000104991ED070AB5EEC00AF1EE10FA01DCDC
:100A0000B1EE400A10EE102A0B4882420EDA91ED48
:100A1000190AB5EEC00AF1EE10FA01DCB1EE400A97
:100A200010EE101A814201DA012000BD002000BD45
:100A3000E80000200C0B00200000A0410649CA8AF3
:100A4000C2F3C0220270CA8AC2F300324270897DAA
:100A5000C1F3401181707047A400002030B50C46EE
:100A600005000CD0022C0AD90548A11E0288284690
:100A700001F0EEFB291901F8020D000A487030BDA3
:100A80003204002030B50C4605000AD0022C08D9EB
:100A9000601E81B2FF22284601F0F0FB291901F8FF
:100AA000010C30BD06480068417D002907D1C08A8D
:100AB000010504D4C00402D4024901200870704723
:100AC000E80000202805002005480068407B20B190
:100AD0000448007808B101207047002070470000EA
:100AE000880200204C01002010B518481849002346
:100AF000B0F912400A781749012C06D0002C03D116
:100B00000A2A01D103714B8010BD0A2AFCD1CA8880
:100B1000002AF9D100790128F6D10F480078012880
:100B2000F2D10E480068B0F84F20B0F86C00101AEF
:100B30001E28E9DD0A4840F6B832B0F900009042BC
:100B4000E2DB084803700120488010BD90010020BE
:100B50008402002024170020B20400206403002037
:100B600044180020B00400202DE9F04116462DED78
:100B70000A8B0F468046B3F90030DDE9131000EE12
:100B8000103ADDE91152F8EEC00AFE4CDDF840C023
:100B9000C4ED0E0ABCF9003000EE103AB8EEC00AFF
:100BA00084ED0F0AB5F90030032593FBF5F31BB272
:100BB00003EB430300EE103AB8EEC00A84ED100ACE
:100BC000B2F9002000EE102AB8EEC01A84ED111A16
:100BD000B1F9001000EE101AF8EEC01AC4ED121AA6
:100BE000B0F9000021EE211A00EE100AB8EEC00A9A
:100BF00084ED130A21EE000AB5EEC00AF1EE10FAF8
:100C00007DD0E14D297B9FEDE18AFDEEE00AB0EE5B
:100C1000480A10EE900A00B20AF094FC84ED0E0A25
:100C2000D4ED0F0A297BB0EE480AFDEEE00A10EE83
:100C3000900A00B20AF086FC84ED0F0AD4ED100A87
:100C4000297BB0EE480AFDEEE00A10EE900A00B2F1
:100C50000AF078FC94ED0E1ADFEDCD0A21EE201A91
:100C600020EE200A84ED0E1A94ED0F1A21EE201AC0
:100C700084ED0F1A84ED100AD4ED110A297BB0EE31
:100C8000000AFDEEE00A10EE900A00B20AF06EFCD7
:100C900084ED110AD4ED120A297BB0EE000AFDEEB4
:100CA000E00A10EE900A00B20AF060FC84ED120A2D
:100CB000D4ED130A297BB0EE000AFDEEE00A10EE37
:100CC000900A00B20AF052FCF0EE400AC4ED130A9A
:100CD00094ED110A94ED121A20EE000A01EE010AB9
:100CE00000EEA00A0AF0E0FA84ED070AD4ED110A3A
:100CF00020EE803A84ED113AD4ED120A00E059E179
:100D000060EE803AB0EE008AC4ED123AD4ED130AD8
:100D100020EE804A84ED134A94ED041AD4ED060ABD
:100D2000D4ED031A94ED050A21EE202A01EEC02A23
:100D300062EE084A21EE812AC4ED084A00EE202A1C
:100D400022EE085A21EEA12A84ED095A01EE412A29
:100D500000EE402A00EEA02A84ED0A2A63EE822AE1
:100D600044EE452A24EE244A03EE424A23EE053A95
:100D7000C4ED0B2A03EEE43A84ED0C4A84ED0D3AFF
:100D8000D4ED145A94ED012A42EE825AC4ED145A5D
:100D900094ED155A04EE025A84ED155AD4ED163A24
:100DA00043EE023AC4ED163A94ED0E2AD4ED004A11
:100DB00004EEA22A32EE252A84ED0E2AD4ED0F2A63
:100DC00044EE842A72EE852AB0EE615AC4ED0F2AF1
:100DD00094ED104A61EEA25A04EE834A21EE423AA3
:100DE000F0EE414A00EE623A74EE233AC4ED103A56
:100DF000C4ED171A84ED181A00EEE33A84ED190ACF
:100E0000C4ED1A0A94ED024A41EE635A03EE045A05
:100E100021EE823A40EE825A00EE233A84ED035AE4
:100E200000EEE23A43EE044AC4ED044A61EEA31A2E
:100E3000B0EE403A05EE843A41EE221A84ED053ACE
:100E400040EE421A25EE050A04EEA40A41EE840A99
:100E500003EE030AC4ED060A00EEA00A0AF024FA23
:100E600084ED070AD4ED030A20EE80BA84ED03BABC
:100E7000D4ED040A60EE808AC4ED048AD4ED050A3C
:100E800020EE809A84ED059AD4ED060A60EE809AF1
:100E90002BEE0B0AC4ED069A08EEE80A09EE490AA1
:100EA00009EEA90A10EE100A0FF0D0FE29EE080A8A
:100EB0006BEE080A41EC1A0B20EE290A00EEA80A94
:100EC00010EE100A0FF0C2FE41EC100BB0EE4A1A01
:100ED000F0EE6A1A07F0E4FA9FED2EBB51EC100B0E
:100EE00053EC1B2B0FF0E4F80EF0B8FB386094EDD8
:100EF00003CAD4ED04AA94ED05AA2CEE0C0AD4ED95
:100F0000068A0AEEAA0A0AEE4A0A08EEE80A10EE73
:100F1000100A0FF09BFE2AEE8A0A41EC190B0CEE28
:100F2000280A20EE080A10EE100A0FF08FFE41EC9E
:100F3000100BB0EE491AF0EE691A07F0B1FA53EC53
:100F40001B2B51EC100B0FF0B3F80EF087FB306049
:100F500094ED040AD4ED060A94ED051A20EE080A71
:100F600020EE200AD4ED030A60EE880A00EEC10AE2
:100F700010EE100A0FF06AFE41EC100B06F074FF41
:100F80000CE0000034040020281900200000FA447E
:100F9000728A8E3C0000006066A64C409FED081BE4
:100FA00051EC100B53EC112B0FF082F80EF056FBA6
:100FB000C8F800000020BDEC0A8BBDE8F0810000FD
:100FC0000000006066A64CC02DE9F04780469146BF
:100FD0000F46122004F066FD0446132004F062FD63
:100FE00044EA0026142004F05DFD0446152004F0B8
:100FF00059FD44EA0025162004F054FD044617204C
:1010000004F050FDA8F8006044EA00203D80A9F8F3
:101010000000BDE8F0872DE9FE4F1546DDE90C9A8A
:101020000E4607460C221C466946104604F060FD39
:10103000BDF80080BDF802C0BDF80430BDF8062040
:10104000BDF80810BDF80A00A4F80080A9F800C097
:10105000AAF800303A8031802880BDE8FE8F000079
:1010600038B5194808F0DEFB08F050F8164808F0CB
:1010700011F8044608F04AF824BB01208DF800005E
:101080000146114A684608F05BFC08F03FF80E483C
:1010900005F0AEFA00208DF800000B4A01216846E9
:1010A00008F04EFC08F032F8074805F077FA022005
:1010B0008DF80000044A0121684608F041FC04460E
:1010C00008F024F8204638BD2819002030B589B032
:1010D000002402940090CDE903430B788DF818307A
:1010E0004B788DF819308B788DF81A30CB788DF8D5
:1010F0001B300B798DF81C304B798DF81D308B79B6
:101100008DF81E30C9798DF81F1006A9012A09D063
:10111000022A05D10A4608AB6946054801F0E8FDF8
:1011200009B030BD0A4608AB69460248F6E7000040
:10113000A80700208007002010B500F013F8084C25
:101140002089012802D1502000F084F9208900284C
:1011500004D1BDE81040D22000F07CB910BD0000E1
:10116000241700200B48017A02290FD10A49407A3E
:101170004881B1F90820824207D0022805D101F147
:101180000C0213891BB100231381088170470123CE
:10119000FAE70000A400002018170020FEE7000076
:1011A00000B58BB0684600F04BF86946054801F081
:1011B00003FE0221034801F089FD024802F014F900
:1011C0000BB000BD80070020014801F0F0BE000018
:1011D0008007002070B50C46054604F0FBFB034871
:1011E000214682692846BDE870401047C4030020AC
:1011F00000B58BB0684600F023F86946054801F059
:10120000DBFD0221034801F061FD024802F0ECF829
:101210000BB000BDA8070020014801F0C8BE0000C7
:10122000A807002070B50C460546044906F0AEFC40
:1012300021462846BDE8704004F008BC6400002048
:101240000021016041608160C16001610122416152
:10125000C0E90612C0E908217047000010B5104A25
:10126000016891420AD10F4B0F4A002101F02BFE79
:101270000D480C490068FFF7ADFF10BD0B4A9142C5
:10128000FBD1084B084A08331C32002101F01BFE39
:10129000054804491C3008310068FFF7C3FF10BD42
:1012A000006400405C000020CC1100200068004079
:1012B00038B50B46164C0168A14201D1154904E02E
:1012C000154CA14222D1134920310B6000238B60C1
:1012D000CB6008230B6113881B0A0B7613784B76BF
:1012E00053881B0A8B769378CB7693881B0A0B77EF
:1012F00013794B77D3881B0A8B779279CA776B4621
:1013000001F1180201F0F4FC002800D0012038BDE2
:1013100000640040041200200068004038B50E4C04
:101320004FF4007525600025A560E560082525615E
:101330000A4C050A25706070080AA070E170100A56
:1013400020716271180AA071E3716B46224602494E
:10135000034801F0CDFC38BDDC180020E803002074
:101360008007002038B50E4C40F2FF15256000259F
:10137000A560E560082525610A4C050A25706070A6
:10138000080AA070E170100A20716271180AA07139
:10139000E3716B4622460249034801F0A9FC38BDBF
:1013A000C4180020E00300208007002038B50E4C50
:1013B0004FF4007525600025A560E56008252561CE
:1013C0000A4C050A25706070080AA070E170100AC6
:1013D00020716271180AA071E3716B4622460249BE
:1013E000034801F085FC38BDF4180020F00300200C
:1013F000A807002070B50B46302822D1124D18885E
:101400006E4240BA00B2DFED0F0AB3EE0E0A2A4672
:10141000314609F05FFF0D4CFBEE040A2A4684EDCD
:10142000000A5888B3EE040A40BA00B2314609F007
:1014300051FF84ED010A9888054940BA20810020B7
:10144000088170BD000000000083FFFF1C19002010
:10145000C403002001498863704700000000014078
:101460000421014803F0B0B9D0070020042101484D
:1014700003F046B9D00700200C48017A012913D1A6
:10148000417A012910D1B0F90A100948B1F5FA7F63
:1014900007DD02882AB9074B1A88521C1A800122DC
:1014A0000280002900D1018070470000A4000020C4
:1014B000BC040020BE0400202849294ADFED290A87
:1014C000B1F86A1000EE101AB8EE400A10EE101AC9
:1014D000914201DDB0EE600A10EE101A80EE201A83
:1014E000214A9FED220A914201DA21EE000AB0F969
:1014F0000020002A00DC5242B0F90210002900DC72
:1015000049420A44B0F90410002900DC49420A4467
:10151000B0F90610002900DC4942114400EE901A8F
:10152000F8EEE00A80EE201AF4EEC00AF1EE10FAAE
:1015300012DB002130F9112000EE102AB8EEC00AAB
:1015400020EE010ABDEEC00A10EE102A20F811208C
:10155000491CC9B20429EDD370470000A402002041
:1015600000007042000070420000C84100A00C471B
:101570002DE9F0470446BA48D4ED0B0A94ED0C0A65
:101580000568B84E30EE801A30EE602A70EEC01A50
:10159000F1EE600A84ED031A70EEC00A84ED042AAD
:1015A000C4ED051AC4ED060AB6F90830AE48962215
:1015B000B2EE080A43BB94ED0D3AF7EE082A00217B
:1015C00032EE034A71EE033A24EE004A63EE803AAB
:1015D00064EE224A31EE834A30EE833A63EEA23A59
:1015E00024EE004A23EE003A24EE224A63EE222A39
:1015F000C4ED073AC4ED084A84ED094AC4ED0A2A4D
:10160000491C02800429F3DB98490968897DC906D1
:1016100021D5012B4AD1D4ED0D2A002131EE221A19
:1016200071EEA21A70EEA20A21EE003A32EE221AF0
:1016300061EE801A21EE001A20EE800A84ED073A4E
:1016400084ED081AC4ED091A84ED0A0A491C0280C7
:101650000429F3DB2AE0012B28D1D4ED0D2AB6EEC4
:10166000003A002131EE221A32EE222A71EEA21A3D
:1016700070EEA20A21EE001A22EE002A61EE801A14
:1016800020EE800A61EE030A22EE031A61EE831A4D
:1016900020EE030A4B2200BF84ED0A0A04F11C036A
:1016A000491CC3EC030A04290280F5DB704A0020C0
:1016B00004EB800191ED070AB5EEC00AF1EE10FAD5
:1016C00002DDF0EE400A01E0F1EE400A10EE903A41
:1016D00093420FDBB5EEC00AF1EE10FA94ED021A58
:1016E000C1EE000A02D220EE600A01E020EE800A7C
:1016F00081ED070A401C0428DADB5E4FD4ED070AAF
:10170000B7F9000000EE100A5B48B8EEC00A0AF014
:1017100006F9B7F92000D4ED080A00EE100A564881
:10172000B8EEC00A48300AF0FAF8B7F94000D4ED34
:10173000090A00EE100A5048B8EEC00A90300AF0CC
:10174000EEF8B7F96000D4ED0A0A00EE100A4A4834
:10175000B8EEC00AD8300AF0E2F8424F0020464CFA
:101760001C3700BF00EBC00104EBC10191ED0B0A77
:10177000BDEEC00A10EE101A27F81010401C042805
:10178000F0DB38481C30FFF797FEDFF8F080DFF819
:10179000F09098F82000012803D099F80C00012857
:1017A00028D100204FF47A6100EBC00204EBC202A2
:1017B000401C11640428F7DB94ED410ABDEEC00A19
:1017C00010EE100A94ED2F0A03B2BDEEC00A10EE1F
:1017D000100A94ED1D0A02B2BDEEC00A10EE100A06
:1017E00094ED0B0A01B2BDEEC00A10EE100A00B271
:1017F000FFF794FD98F8200000282FD199F80C00ED
:1018000000282BD11F4C207898B9B088012806D029
:101810006878022817D0032815D0052813D0B7F907
:101820000630B7F90420B7F90210B7F90000FFF746
:1018300075FD2078012809D06878022803D0032894
:1018400001D005280AD1B088002807D1BDE8F047AB
:1018500000231A4619461846FFF760BDBDE8F08719
:10186000880200206C01002020040020E8000020F5
:101870000000FA45841700202C0C0020640300208F
:10188000C40300204D0100209FED061ADFED060A7B
:10189000B5EE000A41F2883242F22831034804F0E2
:1018A00091BC00008FC2F53C0000000084110020B4
:1018B00070B541F288342DED028B42F228359FED50
:1018C0001B8ADFED1B8AB2EE000AB0EE481AF0EE7A
:1018D000680A22462946174804F074FC1548B0EE01
:1018E000481AF0EE680AB2EE000A2246294648304D
:1018F00004F068FC0F48B0EE481AF0EE680AB2EE49
:10190000000A22462946903004F05CFCB0EE481AEA
:10191000F0EE680ABDEC028B22462946BDE8704015
:101920000448B2EE000AD83004F04CBC00000000BD
:101930009A99193F2C0C00202DE9F05F7349044659
:10194000DFF8CCE1B1F90A2040F6285041F60E5AF2
:10195000022A06D0032A7DD16E4A1278012A7AD053
:10196000CBE06D4ADFF8B4918346B2F81CC09FED1E
:101970006C0ADFED6C0A6D4A6B48B9F90050B2F998
:1019800000706B4AB0F908606A48B2F90030DC4573
:10199000006843EA07023BD1B1F908C0BCF1000F6F
:1019A00003D0BCF1010F15D02BE000EE105AB8EEB9
:1019B000C00A84ED0D0AB9F9063000EE103AB8EE0F
:1019C000C00A84ED0B0AB9F9042000EE102AB8EE23
:1019D000C00A14E0012B01D184ED0D0A012F01D0C2
:1019E0001AB106E0C4ED0D0A03E090ED080A84ED9B
:1019F0000D0A90ED070A84ED0B0A90ED060A84EDBE
:101A00000C0A012E59D1D0ED080A9FED4B0A44E093
:101A1000D44552D1B1F908C0BCF1000F03D0BCF1DC
:101A2000010F19D033E000EE105AB8EEC00A84ED71
:101A30000D0AB9F906305B4200EE103AB8EEC00A62
:101A400084ED0B0AB9F90420524200EE102AB8EED8
:101A5000C00A1AE03EE042E0012B01D184ED0D0AFC
:101A6000012F01D01AB106E0C4ED0D0A03E090ED9C
:101A7000080A84ED0D0A90ED070AB1EE400A84EDE4
:101A80000B0A90ED060AB1EE400A84ED0C0A012E15
:101A900013D1D0ED080A9FED290A60EE800AC4ED4B
:101AA0000D0AD0ED070A60EE800AC4ED0B0AD0EDF6
:101AB000060A20EE800A84ED0C0A8888002809D1E5
:101AC000BEF9880041F29312A0F6C510904203D2ED
:101AD000A1F800B0BDE8F09FA1F800A0FAE78A885D
:101AE0005AB9BEF9882041F26E03A2F21A529A4204
:101AF00001D2488001E0A1F802A0204600F06EFE6D
:101B00002046BDE8F05F05F037B800006C0100200A
:101B100084170020B40400208C160020A4000020AC
:101B20000000A0C20000A04224170020BA04002038
:101B3000B8040020E8000020CDCCCC3DCDCCCCBDFD
:101B400000F0ACBBD220FFF785BC000010B503F05D
:101B500095FA03F099FA0448816888470348816838
:101B6000BDE8104008470000640300208802002000
:101B7000064800684078022805D0032803D00528CD
:101B800001D000207047022070470000880200202A
:101B9000014801F0B7BC0000E4080020014801F052
:101BA000B1BC0000040A0020014801F0ABBC0000F9
:101BB000640A0020014801F0A5BC0000A40900202F
:101BC000014801F09FBC0000440900202DE9F04FBE
:101BD00085680024099E802D18D0894DC563894DE4
:101BE000456490F83450012D15D0012580F834500B
:101BF00090F83550012D10D0002180F834100224C7
:101C0000002180F834102046BDE8F08F4FF4807139
:101C100041650120F8E70220F6E7022580F83550FB
:101C20000025456505682F6847F480272F60056803
:101C30002B6103685E608368402B03682AD099603B
:101C40000168CA60714D704E704FDFF8BC81DFF8DB
:101C5000B891DFF8B8A1DFF8B4B1EA14DFF8A8E171
:101C60000168183630379302A9F148090AF1600A71
:101C70000BF1180BAEF1300E4FF0006C41452DD931
:101C8000A94205D0494503D0514501D0B14205D103
:101C9000202220E09A600268D160D3E759451AD02B
:101CA000714518D0594D7835A94214D0564D30356C
:101CB000A94210D0B9420BD0534A183A914207D0EA
:101CC000524A9032914203D04F4A4832914201D158
:101CD0001A4600E062464C494C392EE0DFF82C8170
:101CE00008F1A80841452AD9A94205D0494503D0A1
:101CF000514501D0B14201D120221CE059451AD0F2
:101D0000714518D0414D7835A94214D03E4D30353B
:101D1000A94210D0B9420BD03B4A183A914207D0A1
:101D20003A4A9032914203D0374A4832914201D127
:101D30001A4600E06246344950390A605AE0DFF83A
:101D4000CC8008F1480841452AD9A94205D0494527
:101D500003D0514501D0B14201D120221CE05945A8
:101D60001AD0714518D0294D7835A94214D0264D86
:101D70003035A94210D0B9420BD0234A183A9142CB
:101D800007D0224A9032914203D01F4A48329142F2
:101D900001D11A4600E062461C491039CA6029E0A8
:101DA000A94205D0494503D0514501D0B14201D1E6
:101DB00020221CE059451AD0714518D0134D7835B2
:101DC000A94214D0104D3035A94210D0B9420BD0E1
:101DD0000D4A183A914207D00C4A9032914203D0F2
:101DE000094A4832914201D11A4600E06246074949
:101DF00010398A6001680A6842F001020A60FFE651
:101E000011A1000829A10008586402401060024096
:101E100001681823CAB2103AB2FBF3F2054B6FF314
:101E20000901032A9B5CC36500D9091D8165084629
:101E3000704700006C11010810B5014600208B6945
:101E40008A6A4FF0C07453B1B3F5005F15D072B118
:101E5000012A0CD0022A0AD0032A09D104E01AB1BF
:101E6000012A06D0022A03D1C96AC90100D501207E
:101E700010BDC96AA142FAD010BD002AF7D0012ACC
:101E8000F2D0022AF3D0032AF3D010BD30B5046893
:101E9000256825F480252560046863608368402BED
:101EA000036803D099600068C26030BD9A60006822
:101EB000C16030BD70B590F834500024012D0CD0B5
:101EC000012580F8345090F835600025012E06D0A9
:101ED00080F834500224204670BD022070BD0226D6
:101EE00080F83560456505682E6826F480262E60EA
:101EF00005686B608368402B036808D099600168AF
:101F0000CA600068016841F001010160E3E79A607E
:101F10000268D160F5E710B5FFF742F9FFF768F9FD
:101F200004F056F905F008FE05F0B0FDBDE81040DC
:101F300005F0D8BD01680A68D20604D5C968C9068B
:101F400001D50CF019BE704770EE601AF5EEC01A9C
:101F5000F1EE10FA01DC70EEC01AF4EEC11AF1EEE7
:101F600010FA01D2B0EE600A70477047F0B54048F1
:101F700090F847100A2945D20122A0F89C2002229D
:101F8000A0F89E200322A0F8A0200422A0F8A220FE
:101F90000522A0F8A42040F201170622A0F8A620EE
:101FA0007E1C0722A0F8A820751C6C1CA0F8AA7043
:101FB000A0F8AC60631CA0F8AE50A0F8B0405A1C6A
:101FC000A0F8B230A0F8B42001290CD002290DD01D
:101FD00003290ED004290FD0052910D0062901D1DC
:101FE000A0F8B620F0BDA0F8B670F0BDA0F8B660BD
:101FF000F0BDA0F8B650F0BDA0F8B640F0BDA0F816
:10200000B630F0BD6522A0F89C206622A0F89E2084
:102010006722A0F8A0206822A0F8A2206922A0F8D8
:10202000A42040F265176A22A0F8A6207E1C6B222D
:10203000A0F8A820751C6C1CA0F8AA70A0F8AC60D1
:10204000631CA0F8AE50A0F8B0405A1CA0F8B23003
:10205000A0F8B4206529C6D06629C7D06729C8D0A2
:102060006829C9D06929CAD06A29B9D0F0BD000051
:10207000A40200200748417A0748012905D0032916
:1020800005D0022900D1C17170470021FBE7012171
:10209000F9E70000A4000020B004002072B6FEE7BB
:1020A00004480068017BC01C11B9007A002800D0E8
:1020B00001207047880200208279C1798A4202D0CB
:1020C000002202608171704770B55048504C002565
:1020D0002DED048BB0F8511000EE101AB8EE408AC6
:1020E00084ED0D8A94ED0F0AB4EE480AF1EE10FA71
:1020F00004D0012121726572A572E572D0F88800C2
:10210000F7EE008A00EE100A84ED0E0AD4ED0B0AF9
:10211000F4EE400AF1EE10FA00D0257257D0207A82
:10212000E8BBDFED3C0A78EE600AF4EEC00AF1EE9F
:1021300010FA02DDE07A401CE07210EE100A0EF098
:1021400085FD41EC190B18EE100A0EF07FFD9FED96
:10215000321B53EC112B0EF077FA53EC192B0DF0C8
:102160006BFF02D9E07A032810D194ED0D0AD4ED6B
:102170000E0A9FED2B1A30EE680A70EE600A94ED9D
:10218000110A00EE810A84ED110AE57294ED0D0A40
:10219000DFED240A30EE601AD4ED0E0A00E016E0FE
:1021A000B4EEE01AF1EE10FA03DB607A401C6072C4
:1021B000A5729FED1D1A30EE410AB4EEE00AF1EE71
:1021C00010FA04D86572A07A401CA07202E0607A0E
:1021D000022803D0A07A022805D00CE094ED100A62
:1021E00030EE280A03E094ED100A30EE680A84ED20
:1021F000100A6572A57294ED0E0A84ED0B0A94ED37
:102200000D0A84ED0F0ABDEC048B70BDA402002002
:1022100090010020CDCC0C40000000000000E03F09
:102220000000C8426666663FCDCCAC3F0648806879
:102230004278C1788A4205D30078884202D30349A4
:102240000020088070470000F803002024170020B9
:1022500010B558B1084C491E0BD310F8013B534040
:10226000DBB234F8133083EA1222F4E74FF6FF7042
:1022700010BD104610BD00008C12010810B5064CB0
:1022800004E000BF10F8013B5340E25C491E89B2F4
:10229000F8D2104610BD00008C1101082DE9F04164
:1022A0002A4801252A4CB0F90810002611B101294D
:1022B00002D002E0657000E06670B0F9000001280D
:1022C00001D010B102E0257000E0267021480227FD
:1022D0000088012811D0A6701F480078B0B1FEF721
:1022E000F3FB08B10320E07005F088FD02280AD056
:1022F000FFF73EFC022808D008E0184800880028B4
:10230000EAD1A770E8E7E57000E0E7701448B0F99B
:102310000000022802D0032802D002E0267200E06A
:102320002572FEF75DFB08B1257100E026710D48AE
:102330000078012806D00C480078012804D0667285
:10234000BDE8F0816572FBE76772F9E724170020AA
:10235000581A00207001002028050020720100207A
:1023600076010020920100209301002030B51E4A22
:102370001C491E4C1E4B92F82050032091F8471028
:1023800022781B78012D14D0002D11D1032916D0ED
:10239000042914D0052912D0672912D0682910D039
:1023A00069290ED001280DD060B1032A12D0104641
:1023B00030BDA3B1012B10D0032A0ED130BD0020B7
:1023C00000E00120032A00D1207021788142F5D05D
:1023D000207030BD1BB1012BFBD1002030BD01208E
:1023E00030BD0000A4020020640300202905002065
:1023F000B7040020164991F82010B9B1154941F2EF
:10240000EC3391ED000ABCEEC00A10EE101A89B24E
:10241000CA1A994218D00DDC01F6A451B1F5005149
:1024200010D0B1F5827F00D1142070470A4890F88F
:1024300051007047642A09D0A2F50062023AF8D12F
:102440001E2070470F2070471220704716207047DB
:1024500064030020A8010020A40200202DE9F0411F
:102460001E491F4E1F4C0D68097E002795F8290054
:1024700019BB10B3FFF714FEF8B168789FED1A0A84
:102480000121022803D0032801D0052804D184EDBE
:10249000060A84ED070A21706878012801D00A280D
:1024A0000CD13068407D10B96078012806D184EDE8
:1024B000060A84ED070A217000E027706078002882
:1024C00009D16878012801D00A2804D13068407DFC
:1024D000002800D12770BDE8F081000088020020AC
:1024E000E80000204C0100200000000010B51B4C4B
:1024F0002088012830D100F0E7F919481949B0F9CE
:1025000088208B8BD21A02F13203642B24D812F16B
:10251000320F21DBB0F9A80000EE100AF8EEC00A75
:1025200091ED040A70EEC00AF5EEC00AF1EE10FA61
:1025300000EE900AF8EEE00A02DD30EEC00A01E09B
:1025400030EE600A084910EE100A884204DC0749A0
:10255000032008800020208010BD0000A40400207B
:10256000841700208C1600200000484276010020CD
:102570009FED0B0ADFED0B0A80ED000A80ED010AEA
:1025800080ED020A80ED030AC0ED040A80ED050A21
:1025900080ED060A40F62851818380ED080A7047D5
:1025A0000000000000802C452DE9F047794E012005
:1025B0002DED048B002770807748784CB0F9A85037
:1025C00000EE105AB8EEC00A84ED060AB088012861
:1025D00004D194ED080A84ED020AB7807048B0F97E
:1025E00000009FED708B6D49DFF8C09191ED009A6E
:1025F00038B1317811B97178012902D001282BD076
:1026000050E0DFF8AC81B8F900000DF0DDFC53ECD0
:10261000182B0DF04DFD0DF021F800EE100A84EDA1
:10262000010A39EE000A84ED000AB8F902000DF043
:10263000CBFC53EC182B0DF03BFD0DF00FF800EE2A
:10264000100A84ED030AD4ED020A30EE800A84ED0C
:10265000020AA9F8087025E056480768386A0EF0A3
:10266000F5FA53EC182B0DF023FD0CF0F7FF00EEFC
:10267000100A84ED010A39EE000A84ED000A786A36
:102680000EF0E4FA53EC182B0DF012FD0CF0E6FFFF
:1026900000EE100A84ED030AD4ED020A30EE800A3F
:1026A00084ED020AB9F80800012803D19FED420A1F
:1026B00084ED020AA5F6C82500EE105A404FB3EE8D
:1026C000031AF8EEC00A9FED3D0A94ED022AC0EE0F
:1026D000801AD7ED000A30EE811A71EE611AF4EE1D
:1026E000C21AF1EE10FA09D801EE905AB8EEE12ABA
:1026F000C2EE001A31EE611A84ED021A01EE105A90
:10270000B8EEC11AC1EE001ABBEE091A70EE810ACA
:1027100030EEE11AD4ED021AB4EEE11AF1EE10FA3D
:1027200009DB01EE105AB8EEC11AC1EE001A30EE04
:10273000E10A84ED020A234894ED001A2349B0F916
:10274000000000EE100A2048F8EEC00A90ED000AE2
:102750001F4807F081FB1F481C4994ED021AB0F98D
:102760000000483100EE100A1948F8EEC00A97ED53
:10277000000A483007F04EFB174890ED530A86EDEB
:10278000020A90ED650A86ED030ABDEC048BBDE8F4
:10279000F08700004C010020841700208C160020D8
:1027A00074010020FA7E6ABC749358BF241700207D
:1027B000A4000020E8000020000000003D0AB6410F
:1027C0000C00002004000020140000204C0D00200C
:1027D0000C0B0020020000202C0C002070B5334BA5
:1027E000044633481A78334982B3012A47D14FF45B
:1027F000C8759FED310A84ED0D0A0C69641C0C61EB
:10280000B0F988200020A2F6C446C82E06D8AC42F3
:1028100004DB40F628544C8018700861A2F5E0549F
:10282000AA3CC82C07D80C69AC4204DB41F60E5414
:102830004C8018700861214CA2F6DC06C82E247862
:1028400023D80E69AE4220DBD4B11EE0FFE71C4A5C
:102850001278002A13D1B0F9880000EE100AB1F9FD
:10286000000000EE900AB8EEC00A1648F8EEE00A42
:1028700009F08EF8134890ED0B0A84ED0D0A70BD37
:102880004FF414664E8018700861A2F5C052C23A27
:10289000C82AF4D80A69AA42F1DB002CEFD141F62C
:1028A00026124A801870086170BD0000B304002031
:1028B000841700206C01002000000000B4040020F8
:1028C0004D0100208411002070B54E4D01202DEDEA
:1028D000068BA8804C484D4C90ED000A84ED080A08
:1028E00068889FED4B8A01280BD194ED060A494870
:1028F00084ED040A0088012801D184ED048A0020B7
:1029000068804548008886B24448A68390ED000A56
:10291000434884ED000AB0F900009FED42AB9FED03
:10292000439B10B1012806D01EE04248B0F90200D6
:102930000DF04AFB04E040480068406A0EF086F95A
:1029400053EC1A2B0DF0B4FB53EC192B0DF0B0FB2C
:102950000CF084FE00EE100A84ED050AD4ED040AA2
:1029600030EE800A84ED040A34480089012801D140
:1029700084ED048A32492069884203DC9FED310AE4
:1029800084ED040A30492069884203DB9FED2F0A59
:1029900084ED040A00EE106A2D4E2F49B8EE401A5D
:1029A00036F9880F00EE100A2A48B8EEC00AB0F9CE
:1029B000000000EE900A2948F8EEE00A07F06EFAEF
:1029C000B6F92000244900EE100A254894ED041AB7
:1029D000B8EEC00AB0F90000483100EE900A1F4876
:1029E000F8EEE00A483007F0F3F91E4890ED770A58
:1029F00085ED020A90ED890A85ED030ABDEC068B90
:102A000070BD00004C0100200C0000208C1600203E
:102A100000802C45A40400206C010020140000203C
:102A2000740100207B14AE47E17A74BF00000000FF
:102A300000000840A4000020E80000202417002027
:102A40000000FA440000FA4400803B4500803B450A
:102A50008417002004000020DC0D00209C0B0020C7
:102A6000020000202C0C002010B546F2A8142DED19
:102A7000028BF7EE000A9FED1A8AB3EE0A0A4FF4B2
:102A8000FA62B0EE481A2146164803F09BFBB0EEFE
:102A9000481AF0EE480A9FED140A00222146134816
:102AA00003F090FB0F48B0EE481ADFED110AB3EEC9
:102AB000060A41F288322146483003F083FBF0EEEB
:102AC000480ABDEC028B214608480022BDE81040B0
:102AD0009FED081A9FED080A483003F073BB000011
:102AE000000000004C0D0020000066430C0B00208D
:102AF0006666663F8FC2F53C0000BE4370B54FF47A
:102B0000FA642DED028B44F620659FED1A8AF7EEEC
:102B1000080AB3EE0E0AB0EE481A224629461648B5
:102B200003F050FBB0EE481AF0EE480AB2EE0C0A81
:102B300000222946114803F045FB0F48B0EE481A21
:102B4000F7EE080AB3EE010A224646F2A811483011
:102B500003F038FBB0EE481AF0EE480ABDEC028BE9
:102B60002946BDE8704005480022B2EE0A0A483006
:102B700003F028BB00000000DC0D00209C0B0020AF
:102B800010B546F2A8142DED028BF7EE000A9FED6A
:102B90001A8AB3EE0A0A4FF4FA62B0EE481A2146D6
:102BA000164803F00FFBB0EE481AF0EE480A9FED0E
:102BB000140A00222146134803F004FB0F48B0EE2C
:102BC000481ADFED110AB3EE060A41F288322146B7
:102BD000483003F0F7FAF0EE480ABDEC028B2146CC
:102BE00008480022BDE810409FED081A9FED080A32
:102BF000483003F0E7BA0000000000004C0D002050
:102C0000000066430C0B00206666663F8FC2F53CF1
:102C10000000BE43224810B500689FED220A234CF5
:102C200050F8031F00EE901A234980EE801ADFED62
:102C30001E0A31EE601A84ED051A406801EE100A92
:102C40001B48C1EE001A31EEE01A84ED041AB0F907
:102C5000000000EE100A1748F8EEC00A90ED000AD6
:102C6000164807F0F9F81648134994ED051AB0F91B
:102C70000000483100EE100A1248F8EEC00A90ED4C
:102C8000000A0E48483007F0C5F80F4890ED530A87
:102C900084ED020A90ED650A84ED030A10BD000080
:102CA00088020020440BB641000034434C01002050
:102CB00004000020140000204C0D00200C0B00200C
:102CC000020000200C0000202C0C002090F8202096
:102CD000012A07D0022A05D0416A41F480214162CD
:102CE00001207047006842690A4342610020704732
:102CF000F0B590F820500468A468012D05D0022D8D
:102D000003D0416A41F4802153E014F0406F01D1B7
:102D1000E5004BD5C4F30164022C03D9416A41F4A8
:102D2000000146E00125A5401D608D684FF4C07389
:102D30009DB1CE6835434E6845EAC605066803EB8B
:102D40000417F5514FF4C275076805EB04150E69B9
:102D50007E51097D012905D009E00E88CD6845EA3C
:102D60004655EBE701684E5946F480764E5111798D
:102D7000D2F805504FF4C67641EA0525016806EB06
:102D800004168D511178D2F801204FF4C47541EA30
:102D90000221026805EB04155151006803EB041190
:102DA000425842F0010242500020F0BD416A41F415
:102DB000001141620120F0BD10B590F82020012AD9
:102DC00007D0022A05D0416A41F4802141620120E6
:102DD00010BD3B48D0F8002242F00102C0F80022AA
:102DE000D0F8002222F47C52C0F80022D0F8002251
:102DF0004B6A42EA0322C0F800220A7D02F01F0358
:102E000001229A40D0F81C329343C0F81C32CB699F
:102E1000B3B9D0F80C329343C0F80C328C894B68AC
:102E200064F31F434C6900EBC404C4F840320C89BE
:102E30000B6864F31F434C6900EBC404C4F84432CC
:102E4000CB69012B16D1D0F80C321343C0F80C32E9
:102E50000C884B6864F31F434C6900EBC404C4F84E
:102E600040320C89CB6864F31F434C6900EBC40407
:102E7000C4F844328B69002BD0F804320ED01343CF
:102E8000C0F804320B69002BD0F8143208D0134379
:102E9000C0F81432096A012904D008E09343EFE72F
:102EA0009343F5E7D0F81C121143C0F81C12D0F878
:102EB000001221F00101C0F80012002010BD000036
:102EC00000640040704730B590F82040012C05D0D8
:102ED000022C03D0416A41F480215DE0046800299E
:102EE00055D02469A40754D04FF4D874056804EB76
:102EF00001142D5915F00405956005682D594ED023
:102F0000ED08556005682C5904F00204D4604FF4B4
:102F1000DA74056804EB01142D5905F00F051561ED
:102F200005682D59C5F30725956105682C59240CB2
:102F300054614FF4DC72046802EB0112A4581C7057
:102F40000468A458240A5C700468A458240C9C707B
:102F50000468A258120EDA704FF4DE72046802EBB5
:102F60000112A4581C710468A458240A5C710468F6
:102F7000A458240C9C710468A258120EDA710068DF
:102F800081B1016941F020010161002030BDE46898
:102F9000A8E7416A41F400114162012030BD6D0D86
:102FA0001560AFE7C16841F02001C160EDE72DE990
:102FB000F05F0546006800244669D0F804908768F1
:102FC000D0F80CB0D0F810A0D0F81880F10748D095
:102FD000F90714D001218160B80703D5284600F015
:102FE00030FA0CE0780702D54FF4006407E03807A8
:102FF00002D54FF4805402E0284600F021FAF8058B
:1030000016D529684FF480708860B80503D5284626
:1030100000F019FA0CE0780502D544F4005407E0FA
:10302000380502D544F4804402E0284600F00AFA4C
:10303000F80316D529684FF480308860B80303D5AB
:10304000284600F002FA0CE0780302D544F400446C
:1030500007E0380302D544F4803402E0284600F04B
:10306000F3F9300707D55FEACB6004D52968102053
:1030700044F40074C86070074FF0080707D55FEA92
:103080000B7004D52868C760284600F099F9B0078E
:1030900006D52868C068800702D0284600F092F95B
:1030A000700607D55FEACA6004D52968102044F489
:1030B00080640861B00607D55FEA0A7004D5286805
:1030C0000761284600F08CF9F00606D528680069EB
:1030D000800702D0284600F084F9B00308D55FEAE3
:1030E000C96005D5296810204860284600F07AF9A3
:1030F000F00307D55FEA097004D5286847602846C1
:1031000000F0A4F9300446D55FEA497040D5F005D7
:1031100004D55FEAC87001D044F00104B00504D5BD
:103120005FEA887001D544F00204700504D55FEAB7
:10313000487001D544F00404300529D518F0700F0B
:1031400026D008F07000402815D006DC102809D0E1
:1031500020280AD0302816D10AE050280ED0602846
:1031600011D10EE044F008040DE044F010040AE030
:1031700044F0200407E044F0400404E044F08004FC
:1031800001E044F480742868816921F07001816154
:10319000296804204860002C05D0686A20436862D2
:1031A0002846FFF78FFEBDE8F09F70B5040003D0FE
:1031B00094F8200010B104E0012070BD204600F01A
:1031C00081F82068016841F00101016000F01CFCF9
:1031D0000546052604E000F017FC401B0A2811D81C
:1031E00020684068C007F6D02068016821F002011D
:1031F000016000F009FC05460BE000F005FC401BF7
:103200000A2806D9606A40F40030606284F82060C1
:10321000D2E7206840688007EFD4207E012820682C
:1032200001683DD021F080010160607E01282068A6
:10323000016838D021F040010160A07E012820689B
:10324000016833D021F020010160E07E0128206870
:1032500001682ED041F010010160207F0128206814
:10326000016829D021F008010160607F01282068F1
:10327000016824D021F004010160D4E9020108436F
:10328000D4E90412114308436168491E08432168C8
:10329000C86100206062012084F82000002070BD19
:1032A00041F08001C0E741F04001C5E741F0200155
:1032B000CAE721F01001CFE741F00801D4E741F05F
:1032C0000401D9E7F0B587B0044614216846FDF73C
:1032D000B5F9364B3648DFF8D0E01968D4F800C0AD
:1032E000334A03250226092710300024491CF445DF
:1032F00022D11960012907D1016841F000710160F4
:10330000006800F000700590106840F00800106040
:103310001068CDE9005600F00800CDE90470694658
:103320002448CDE9024500F071FA0022052114205D
:1033300000F01AFC142032E0DFF87CE0F44530D1D4
:10334000D0F800C04CF0806CC0F800C0D0F800C0CD
:1033500001290CF0806CCDF814C0196007D1016808
:1033600041F000710160006800F000700590106885
:1033700040F002001060106802AB00F002000590FF
:103380006020CDE9000683E8B00069460B4800F0F4
:103390003DFA00220521402000F0E6FB402000F02D
:1033A000D5FB07B0F0BD00000064004048000020DD
:1033B00030380240000C0240006800400004024027
:1033C00070470000044A0168914202D0034A9142CA
:1033D00001D1FDF743BF7047006400400068004022
:1033E000704770477047000070B5044690F82000A1
:1033F000012804D0606A40F40020606218E00220D6
:1034000084F820002068016821F00101016000F0CB
:10341000FBFA05460EE000BF00F0F6FA401B0A2852
:1034200008D9606A40F400306062052084F820000A
:10343000012070BD20684068C007EDD1606270BD9A
:1034400070477047704770477047704770472DE965
:10345000F0410446876D00F0D7FA064694F835002F
:103460000025022806D08020606584F834500120B1
:10347000BDE8F0812068016821F016010160206834
:10348000416921F080014161206C08B9A06C20B134
:103490002068016821F0080101602068016821F0BE
:1034A000010101600CE000F0AFFA801B052807D98C
:1034B00020206065032084F8350084F83450D7E775
:1034C00020680068C007EED194F85C103F20884067
:1034D000B860012084F8350084F834500020C7E734
:1034E00090F83510022903D08021416501207047F2
:1034F000052180F835100068016821F001010160A4
:10350000002070472DE9F84304464FF00009CDF83C
:10351000009063484FF41651A56D0068B0FBF1F7B9
:103520002E6894F85C10082000FA01F131420FD0A7
:1035300021680A6852070BD50A6822F004020A6063
:1035400094F85C108840A860606D40F001006065F0
:1035500094F85C104FF0010808FA01F0304208D0EE
:1035600021684969090604D5A860606D40F0020031
:10357000606594F85C1004208840304208D02168CF
:103580000968890704D5A860606D40F00400606593
:1035900094F85C1010208840304218D021680968E7
:1035A000090714D5A86020680168490304D500689C
:1035B000000308D5A16C07E00168C90503D40168C0
:1035C00021F008010160216C09B12046884794F878
:1035D0005C1020208840304231D021680968C9063B
:1035E0002DD5A86094F8350005282068016806D01C
:1035F000490347D5006800031DD4616C1CE021F02D
:10360000160101602068416921F080014161206C50
:1036100008B9A06C20B12068016821F008010160A0
:1036200094F85C103F208840A86084F8358084F8C6
:103630003490216D1FE0E16B09B120468847606D31
:1036400000282BD0606DC00714D0052084F8350009
:103650002068016821F0010101600098401C009081
:10366000B84203D820680068C007F6D184F83580D6
:1036700084F83490E16C002910D001B02046BDE8F8
:10368000F04308470168C905D5D4016821F010014D
:10369000016084F8358084F83490CCE7BDE8F88385
:1036A000580000202DE9F041044600F0ADF906462F
:1036B0005CB1022084F83500002584F8345020687D
:1036C000016821F0010101600DE00120BDE8F081F9
:1036D00000F09AF9801B052805D920206065032099
:1036E00084F83500F2E720680068C007F0D122684E
:1036F000116820480140D4E901031843D4E9033696
:103700003343184363691843A3691843E3691843B3
:10371000236A18430843616A042903D1D4E90B13CF
:1037200019430843106020684069666A20F0070169
:1037300030460E43012704280CD1A06A0643E06AF4
:1037400040B12046FEF778FB20B14020606584F848
:103750003570BAE7206846612046FEF759FB94F8B9
:103760005C203F2191408160656584F835700020C0
:10377000ACE700003F8010F02DE9F0410446866D73
:1037800090F83400002501280DD0012084F8340081
:1037900094F835700020012F07D084F834000225FA
:1037A0002846BDE8F0810220FBE7022784F8357047
:1037B00060652046FEF76AFB94F85C103F20884065
:1037C000B0602068016841F016010160206C20B1F2
:1037D0002068016841F0080101602068016841F03B
:1037E00001010160DCE7000070B5044600F00CF94F
:1037F0000546601C02D004480078044400F004F937
:10380000401BA042FAD370BD4C0000202DE9F84FB8
:10381000DFF8BCA10022012503264FF00F090AF1B1
:10382000040BAAF1040E00BF0B6805FA02F4234052
:10383000A34270D10F7907F00307012F01D0022FA7
:1038400016D187684FEA420806FA08FC27EA0C07F7
:10385000D1F80CC00CFA08FC4CEA070CC0F808C000
:103860004768A7430C79C4F3001494403C43446078
:103870000C79E443A4070AD0C4684FEA420C06FA64
:103880000CF7BC438F6807FA0CF72743C7600C7925
:1038900004F00304022C12D1D40800EB840CDCF8F1
:1038A00020405707FF0E09FA07F824EA0804D1F868
:1038B000108008FA07F848EA0408CCF82080046869
:1038C0004FEA420C06FA0CF7BC430F7907F00307E6
:1038D00007FA0CF7274307604C6814F4403F70D098
:1038E0003C4C276847F480472760246822F0030790
:1038F00004F480440094384C07EB040CDCF80848CE
:1039000097074FEA177809FA08F7BC43334FB842D4
:1039100002D1002724E054E0314FB84201D1012701
:103920001EE0304FB84201D1022719E02E4FB842B5
:1039300001D1032714E02D4FB84201D104270FE035
:103940002B4FB84201D105270AE02A4FB84201D1D6
:10395000062705E0284FB84201D1072700E00827D5
:1039600007FA08F72743CCF80878DAF800405746FA
:10397000D1F804C09C435FEACC2C00D51C433C60CA
:10398000DBF800405F46D1F804C09C435FEA8C2C12
:1039900000D51C433C60DEF800407746D1F804C0F7
:1039A0009C435FEA8C3C00D51C433C60084F083FB9
:1039B0003C68D1F804C09C435FEACC3C00D51C4372
:1039C0003C60521C102AFFF42FAFBDE8F88F0000B6
:1039D000083C0140443802400030014000000240F1
:1039E0000004024000080240000C024000100240A7
:1039F0000014024000180240001C02400AB181611C
:103A000070470904FBE70000014880687047000028
:103A10004C00002009480168094A127811440160ED
:103A20004FF08041496A006800EB4002C2EBC010D1
:103A300001EBC000034908607047000054000020FB
:103A40004C0000206C0000200B4810B5016841F4C8
:103A500000710160016841F480610160016841F416
:103A600080710160032000F09FF80F2000F006F83D
:103A700000F050F8002010BD003C024030B5054673
:103A8000204887B00024016841F00101016000680E
:103A900006A900F00100009001A800F031F9049897
:103AA000B0B100F04DF9400017494FF08042B0FB33
:103AB000F1F11648491E026040F2E732C0E90324E2
:103AC000C0E90114846100F0B7FB040003D015E0E5
:103AD00000F036F9E8E70D4800F0F0FB04000DD1E6
:103AE0001C2000F033F8102D07D2002229461C209C
:103AF00000F03AF80648056000E0012407B02046CF
:103B000030BD00004038024040420F00C40A00208F
:103B1000500000200C4882B0016841F480410160EF
:103B2000006800F4804000900748001F016841F0E1
:103B3000805101600068002200F0805000900F2149
:103B4000901E02B000F010B844380240002809DB93
:103B500000F01F02012191404009800000F1E020A7
:103B6000C0F8001170470000F0B40E4B1B680C4603
:103B7000C3F30223C3F10705042D00D90425191D41
:103B8000072901D2002300E0DB1E012606FA05F119
:103B9000491E214099409E40761E16403143F0BC9C
:103BA00004F052B90CED00E0064900F00702086885
:103BB0004FF6FF03184040EA0220034A1043086012
:103BC000704700000CED00E00000FA052DE9F04719
:103BD0000E46050065D0DFF81481D8F80000F7B272
:103BE00000F00700B04207D288F80070D8F8000053
:103BF00000F00700B04254D128683D4C810712D52F
:103C0000400703D5206840F4E05020602878000782
:103C100003D5206840F4604020602068A96820F047
:103C2000F000084320602878C0072DD0304968682C
:103C30000839012812D0022813D0032811D00968AE
:103C4000890700292DDA216821F003010143216051
:103C5000FFF7DAFE814641F2883A0EE009688903EF
:103C6000EFE709688901ECE7FFF7CEFEA0EB090159
:103C7000514502D90320BDE8F0872068696800F04B
:103C80000C00B0EB810FEFD1D8F80010404601F0E6
:103C90000701B14207D90770006800F00700B04281
:103CA00001D00120E7E72878400705D52068E968BA
:103CB00020F4E050084320602878000706D52068EB
:103CC000296920F4604040EAC100206000F058F803
:103CD0002168084AC1F30311515CC84006490860D5
:103CE00006480068FFF7CAFE0020C4E7003C024017
:103CF00008380240741101085800002050000020CC
:103D00000F2202600C4A136803F003034360136838
:103D100003F0F0038360136803F4E053C360126898
:103D20004FF4E05303EAD20202610448006800F055
:103D3000070008607047000008380240003C02405D
:103D40000448054900680968044AC1F38221515CAE
:103D5000C84070475800002008380240841101080C
:103D60000448054900680968044AC1F34231515CBE
:103D7000C8407047580000200838024084110108EC
:103D8000154810B5006810F00C02144813D01449FF
:103D9000042A0FD0082A0ED10F4C241F2268236852
:103DA00002F03F025B0207D52068C0F38810A0FB39
:103DB000010106E0084610BD2168C1F38811A1FB8E
:103DC00000010023FCF72AFB2168C1F30141491CD3
:103DD0004900B0FBF1F010BD083802400024F400A7
:103DE00040787D012DE9F84F04006ED02078DFF88F
:103DF0004C93C007A9F104054AD009F104000168F9
:103E0000C1F38101012908D00068C0F381000228B4
:103E10000AD1D9F80000400206D52868800337D5BA
:103E200060680028E1D033E06068B0F5803F10D0D2
:103E3000B0F5A02F286810D020F4803028602868C2
:103E400020F4802028606068A8B1FFF7DDFD0646F9
:103E50000DE0286840F48030F4E740F480202860CA
:103E6000F7E700BFFFF7D0FD801B642873D82868F0
:103E70008003F7D50CE0FFF7C7FD064605E000BF5D
:103E8000FFF7C2FD801B6428F0D828688003F7D4B0
:103E90002078DFF8AC8280074FF0000A3ED5A748B3
:103EA000001D016811F00C0F08D00068C0F38100FC
:103EB00002280BD1D9F80000400207D428688007F7
:103EC00016D5E068012800D112E033E1E068B8B10E
:103ED0000120C8F80000FFF797FD064605E000BF87
:103EE000FFF792FD801B0228C0D828688007F7D50D
:103EF0002868216920F0F80040EAC10028600DE040
:103F0000C8F800A0FFF780FD064604E0FFF77CFD3F
:103F1000801B02281FD828688007F7D42078000764
:103F200022D5864F87486169703771B101210160E0
:103F3000FFF76AFD064604E0FFF766FD801B0228D6
:103F400009D838688007F7D50EE0C0F800A0FFF761
:103F50005BFD064605E082E0FFF756FD801B022868
:103F60007DD838688007F7D42078400768D5DFF817
:103F7000CCB100270BF13C0BDBF80000C0000BD4E8
:103F8000DBF8001041F08051CBF80010DBF80000A6
:103F9000012700F0805000906B4E3068C00510D4AF
:103FA000306840F480703060FFF72EFD009005E02F
:103FB000FFF72AFD0099401A022850D83068C00542
:103FC000F6D55E4EA0686C3601280FD00528306803
:103FD00010D020F001003060306820F00400306024
:103FE000A068B8B1FFF710FD00900FE0306840F016
:103FF0000100F4E740F004003060F7E7FFF704FD4C
:104000000099411A41F28830814266D830688007B1
:10401000F4D50EE0FFF7F8FC009007E0FFF7F4FCA2
:104020000099411A41F28830814256D830688007A1
:10403000F4D42FB1DBF8001021F08051CBF8001040
:10404000A069C8B33D49091D0968C1F3810102296E
:104050004AD00228504607D0C8F8600000E03CE093
:10406000FFF7D2FC04463BE04746C8F86000FFF784
:10407000CBFC064605E000BFFFF7C6FC801B02280C
:104080002BD828688001F7D4D4E907010843A16A36
:104090002E4A490802EB0141626A41EA8211084353
:1040A00094F82C1040EA0161C9F80010012038662C
:1040B000FFF7AAFC044606E03EE000BFFFF7A4FCC1
:1040C000001B022809D828688001F7D534E000BF1A
:1040D000FFF79AFC001B022802D90320BDE8F88FE5
:1040E00028688001F4D427E00128F7D0D9F800002F
:1040F000E26900F4800191421CD1226A00F03F0184
:10410000914217D147F6C071626A0140B1EB821F3C
:1041100010D1A26A4FF0FF3300F4403103EB52029A
:10412000B1EB024F06D194F82C1000F07060B0EBA8
:10413000016F01D00120D1E70020CFE70438024011
:1041400000004742800E4742007000400000FFFF21
:104150007047704710B590F83C20012A22D0012208
:1041600080F83C20CA688C6822F4407222434C6874
:1041700022F4806222430C6822F4006222430C691C
:1041800022F4805222434C6922F400522243C9692E
:10419000002322F480420A4301684A6480F83C30DC
:1041A000002010BD022010BD70B590F83C20012AFF
:1041B00032D0012480F83C40022280F83D20036880
:1041C0005A689D6822F070060A6832435A60134BA1
:1041D00002689A4214D0B2F1804F11D0104B9A422B
:1041E0000ED0104B9A420BD00F4B9A4208D00F4B77
:1041F0009A4205D00E4B9A4202D00E4B9A4204D1FD
:10420000496825F080031943916080F83D40002102
:1042100080F83C10084670BD022070BD00000140CF
:104220000004004000080040000C00400004014071
:10423000004001400018004010B5040003D094F87D
:104240003D0010B107E0012010BD002084F83C00C3
:10425000204600F01FF8022084F83D00211D206850
:1042600003F024F9012084F8460084F83E0084F825
:104270003F0084F8400084F8410084F8420084F84C
:10428000430084F8440084F8450084F83D00002091
:1042900010BD000008B500680649884208D10648EC
:1042A000016841F001010160006800F00100009028
:1042B00008BD0000000001404438024090F83D1065
:1042C000012901D001207047022180F83D100168CA
:1042D000CA6842F00102CA6000681149884214D0DD
:1042E000B0F1804F11D00F4988420ED00E4988425C
:1042F0000BD00E49884208D00D49884205D00D499F
:10430000884202D00C49884204D1816801F007013B
:10431000062903D0016841F00101016000207047C7
:10432000000001400004004000080040000C004074
:1043300000040140004001400018004070B50446F0
:1043400090F83C000025012817D0012684F83C6035
:10435000022084F83D002068826822F0770222F46F
:104360007F4282600868502838D00DDC20284FD06A
:1043700005DC90B3102811D14AE0022070BD30282E
:1043800046D040280AD13BE060282FD070280DD0BD
:10439000B0F5805F03D0B0F5005F12D0012584F83E
:1043A0003D60002084F83C00284670BDCB68D1E910
:1043B0000121206803F0EBF82068816841F0770163
:1043C00009E0CB68D1E90121206803F0E0F820681A
:1043D000816841F480418160E1E719E0CA68496879
:1043E000206803F0A9F95021206806E0CA684968EE
:1043F000206803F0B2F96021206803F0D2F8CEE71C
:10440000CA684968206803F097F940212068F4E7FA
:10441000226801461046F0E7704770B50446006810
:1044200001694FF00005C943890715D4C168C94324
:10443000890711D4E91E0161012020772068806975
:104440008007204602D0FFF7E7FF04E000F0C2F843
:10445000204600F054F9257720680169C9434907CF
:1044600017D4C168C943490713D46FF0040101612F
:10447000022020772068806910F4407F204602D017
:10448000FFF7CAFF04E000F0A5F8204600F037F976
:10449000257720680169C943090716D4C168C94353
:1044A000090712D46FF00801016104202077206809
:1044B000C0698007204602D0FFF7AEFF04E000F09D
:1044C00089F8204600F01BF9257720680169C94367
:1044D000C90617D4C168C943C90613D46FF01001C7
:1044E0000161082020772068C06910F4407F2046D1
:1044F00002D0FFF791FF04E000F06CF8204600F0D6
:10450000FEF8257720680169C943C90708D1C16849
:10451000C943C90704D1891E0161204600F092F900
:1045200020680169C943090609D4C168C94309065D
:1045300005D46FF0800101612046FFF709FE206875
:104540000169C943490609D4C168C943490605D46C
:104550006FF040010161204600F07BF9206801699D
:10456000C94389060BD4C168C943890607D46FF0D3
:10457000200101612046BDE87040FFF7EABD70BD33
:1045800010B586B0044614216846FCF757F80E496A
:104590002068884216D10D480021026842F01002BE
:1045A0000260006800F0100005904FF42060009059
:1045B0000220CDE901010120CDE90310694604483C
:1045C000FFF724F906B010BD00000140303802406A
:1045D00000100240704770B5044690F83C00002679
:1045E0000D4601280FD0012084F83C006AB1042A4E
:1045F0001DD0082A2FD00C2A3FD00126002084F895
:104600003C00304670BD022070BD206802F0D2FF31
:104610002068816941F0080181612068816921F089
:1046200004018161206881692A69114311E02068D1
:1046300002F0F0FF2068816941F400618161206827
:10464000816921F480618161206881692A6941EA78
:1046500002218161D2E7206803F012F82068C16965
:1046600041F00801C1612068C16921F00401C16104
:104670002068C1692A69114311E0206803F034F809
:104680002068C16941F40061C1612068C16921F4F9
:104690008061C1612068C1692A6941EA0221C16162
:1046A000ACE710B5040003D094F83D0010B107E06A
:1046B000012010BD002084F83C00204600F01EF8C8
:1046C000022084F83D00211D206802F0EFFE012049
:1046D00084F8460084F83E0084F83F0084F84000E7
:1046E00084F8410084F8420084F8430084F84400D0
:1046F00084F8450084F83D00002010BD70477047E5
:1047000010B50446022249B104290ED0082913D05D
:1047100094F84100012816D0012010BD94F83E0005
:104720000128F9D184F83E200FE094F83F000128D9
:10473000F2D184F83F2008E094F840000128EBD142
:1047400084F8402001E084F841200122206802F032
:1047500011FF16492068164A884201D0904203D1C1
:10476000436C43F4004343642068884213D0B0F1A3
:10477000804F10D00F4988420DD00F4988420AD08F
:104780000E49884207D0904205D00D49884202D098
:104790000C49884204D1816801F00701062903D041
:1047A000016841F001010160002010BD00000140DE
:1047B000000401400004004000080040000C0040DC
:1047C000004001400018004030B504460D46006826
:1047D000002202F0CFFE194B41F2111120688A101D
:1047E000984202D0164B984209D1036A0B4206D177
:1047F000036A134203D1436C23F4004343642068EB
:10480000036A0B4206D1016A114203D1016821F00B
:104810000101016001203DB1042D08D0082D09D00F
:1048200084F84100002030BD84F83E00FAE784F8A7
:104830003F00F7E784F84000F4E700000000014083
:10484000000401400068B0F1804F01D1FFF7E2B8E9
:104850007047704770477047F8B5016804460868AC
:10486000CA684B6910F00F0F4FF000055AD003F0E3
:10487000010602F49077374365D0C10705D0D10512
:1048800003D5216C41F001012164410705D5D90709
:1048900003D0216C41F002012164810705D5D907BD
:1048A00003D0216C41F004012164010707D502F017
:1048B0002001314303D0216C41F008012164216CB7
:1048C00000293BD0800604D5900602D5204602F090
:1048D000EBFF20684069216CC0F3801001F00801F3
:1048E000014320462BD002F0AAFF20684069400611
:1048F00021D52068143050E8001F21F0400140E825
:104900000012002AF5D1A06BA8B16C490165A06B1B
:10491000FEF7E6FD002811D0A06B016D01B0BDE8E7
:10492000F040084783060ED593060CD52046BDE817
:10493000F84002F0B9BF2046FFF78DFFF8BDFFF742
:104940008AFF2564F8BD266B2023012E79D1C60687
:1049500077D5D60675D5086848680090486940063E
:1049600040D5A16B086840680004000CEAD0A28D15
:104970008242E7D9E085C869B0F5807F2DD02068F4
:104980000C3050E8001F21F4807140E80012002A2A
:10499000F5D12068143050E8001F21F0010140E8F3
:1049A0000012002AF5D12068143050E8001F21F0D1
:1049B000400140E80012002AF5D184F83E3025631A
:1049C00020680C3050E8001F21F0100140E8001270
:1049D000002AF5D1A06BFEF73AFDA08DE18D401ABB
:1049E00081B229E0A08DE18D401A81B2E08D0028CE
:1049F000A8D00029A6D020680C3050E8002F22F45F
:104A0000907240E80026002EF5D12068143050E85E
:104A1000002F22F0010240E80026002EF5D184F894
:104A20003E30256320680C3050E8002F22F0100241
:104A300040E80023002BF5D12046FFF70BFFF8BD1F
:104A4000FFE705062BD5150629D594F83D0021284A
:104A5000F5D1A068B0F5805F01D12069B0B1206ABE
:104A6000411C2162216800784860E08C401E0004EF
:104A7000000CE084E3D12068C16821F08001C160AE
:104A80002068C16841F04001C160D8E7206A008811
:104A9000C0F308004860206A801C2062E5E74006F9
:104AA000CDD55006CBD5CA68204622F04002CA6058
:104AB00084F83D3000F0C8F9C1E70000997700089C
:104AC00070B5040004D094F83D00002510B106E054
:104AD000012070BD84F83C50204600F023F82420CB
:104AE00084F83D002068C16821F40051C16020466F
:104AF00002F03AFF2068016921F4904101612068C9
:104B0000416921F02A0141612068C16841F40051E6
:104B1000C1602564202084F83D0084F83E00002018
:104B200070BD00002DE9F04F87B00546142168469E
:104B3000FBF784FD96489649DFF850821038D5F887
:104B400000C00222032300244F0506154FF480798C
:104B5000C44574D1D1F800C0A3464CF4801CC1F800
:104B600000C0096801F480110591016841F0040159
:104B70000160016801F004010591016841F008013C
:104B800001600068904600F008000590D002CDE971
:104B900000020120CDE90203082004909A466946EC
:104BA0007C48FEF733FE0420CDE900080120CDE962
:104BB000020A0820049069467748FEF727FEDFF8CE
:104BC000E0A176495046CAF80010C0E90174C0E976
:104BD0000346B8464FF44037CAF82070CAF814406C
:104BE000CAE90649CAF82440FEF75CFD08B1FDF7A2
:104BF00055FA6B4C6948C5F838A06034A830CAF83B
:104C00003850C4E900084020A060C4E903B6C4F8E5
:104C100014B0C4F818B0C4E907B72046C4F824B0EB
:104C2000FEF740FD08B1FDF739FA6C63002205215B
:104C30003520A563FEF798FF352047E0FFE7DFF852
:104C400064814FF0070AC44545D1D1F800C04CF447
:104C5000003CC1F800C0096801F400310591016809
:104C600041F0010101600068694600F00100059013
:104C70000C208DE81500CDE9033A4B48FEF7C6FD40
:104C8000DFF81C81454908F1C00878314046C8F872
:104C90000010C0E90174C0E90346C8F814404FF49D
:104CA0004031C8F81840C8E90791C8F82440FEF719
:104CB000F9FC08B1FDF7F2F9C5F8388000220521AA
:104CC0002620C8F83850FEF74FFF2620FEF73EFF9B
:104CD00007B0BDE8F08FDFF8D480C445F8D1D1F833
:104CE00000C04CF4802CC1F800C0096801F4802198
:104CF0000591016841F0020101600068694600F019
:104D0000020005904FF440608DE81500CDE9033AAC
:104D10002748FEF77BFD2149DFF89880183140468F
:104D2000C8F80010C0E90174C0E90346C8F814408F
:104D3000C0E906494FF40039C8E90894BA46FEF7BD
:104D4000B1FC08B1FDF7AAF91A4F1448C5F838802C
:104D500060374830C8F83850E7E8020A402051C7A9
:104D6000144847F814496030BC61C7E907497C62C0
:104D7000FEF798FC08B1FDF791F96F630022052159
:104D80002720BD63FEF7F0FE27209FE7005000407C
:104D90004038024000080240000C0240106002400F
:104DA000E4080020004400400000024000480040A9
:104DB00000040240040A00207047000070B5044659
:104DC00090F83D00202836D191B38AB394F83C0086
:104DD000012830D0012084F83C002162A284E284C2
:104DE00000252564212084F83D00636B1348D863B7
:104DF000636B13481864636B1248D864606B134686
:104E000005652668606B321DFEF7B6FC21686FF001
:104E10004000086084F83C502068143050E8001FBF
:104E200041F0800140E80012002AF5D1002070BD59
:104E3000FFE70120FBE70220F9E70000F377000815
:104E400035780008A977000870477047FEE7000032
:104E500070B50D4C0025C4F8B4520C48016821F01F
:104E600040410160016841F080410160C4F8BC52DA
:104E7000022004F52D7405F03FF901202060022086
:104E800005F03AF9256070BD008040420004024000
:104E900070B50D4C0025C4F8B4520C48016821F0DF
:104EA00040410160016841F0804101600126C4F881
:104EB000BC62022004F52D7405F01EF92660022064
:104EC00005F01AF9256070BD0080404200040240E0
:104ED0002DE9F047814616480024016821F0404141
:104EE000016001680160134E254627464FF0010816
:104EF000C6F8B472022005F0FFF8C6F8B482600666
:104F0000040ED6F83C0208B1641CE4B2012005F09E
:104F1000F3F86D1CEDB2082DEAD3B9F1000F04D0FF
:104F2000FFF796FF2046BDE8F087FFF7B1FFF9E7EE
:104F300000040240008040422DE9F041064614483A
:104F4000016821F040410160016841F08041016049
:104F5000104C0027C4F8B4723D464FF00108F00928
:104F6000C4F8BC027006060E022005F0C5F8C4F8AD
:104F7000B482022005F0C0F8C4F8B472022005F033
:104F8000BBF86D1CEDB2082DE9D3BDE8F08100003F
:104F9000000402400080404270B50D48016821F0D5
:104FA00040410160016841F080410160094C0120ED
:104FB000C4F8BC02C4F8B402042004F52D7405F052
:104FC0009BF80025A560042005F096F8256070BDCB
:104FD00000040240008040420E4810B5016821F0F4
:104FE00040410160016841F0804101600A4C0020AD
:104FF000C4F8B402C4F8BC02042004F52D7405F012
:105000007BF801202060A060BDE81040042005F07E
:1050100073B80000000402400080404270B512489E
:105020000024016821F040410160016801600F4DDA
:105030000126C5F8BC62304605F05EF8C5F8B462DA
:10504000012005F059F807E0641CE4B2FA2C03D9FA
:10505000FFF7C2FF012070BDD5F83C020028F3D154
:10506000C5F8B40270BD0000000402400080404258
:10507000014881680847000030010020014881682C
:1050800008470000E8000020014881680847000048
:1050900088020020FCF754FD012006F005FCF9E72A
:1050A000274810B5417A032911D1B0F90A0010F54B
:1050B000967F0CDABFF34F8F22480168224A01F431
:1050C000E06111430160BFF34F8F00BFFDE700F0C7
:1050D00013F900F0D1FA00F057F900F0B1F800F040
:1050E0006FF800F07DFB00F0B1F900F00FFA00F06E
:1050F000A5FA00F0D3FB00F09FFB00F0D5F91348B0
:105100000068C08A010504D5C10402D5104A0521F2
:105110001170810604D5400502D50E490220088091
:1051200000F0EEFB00F038FB00F008FB0A480078C6
:10513000002803D1BDE81040FBF7B4BC10BD00004F
:10514000A40000200CED00E00400FA05E8000020B7
:1051500028050020760100204D01002070B515467D
:105160000E460446C171FCF7A7FF00206A1CAEB1D1
:10517000012E21D1617903291FD02068401C2060B5
:10518000A84219DB012121716171904214DB0221D7
:105190002171617198420FDB03200BE0617961B1ED
:1051A0002168491C2160A94206DB04232371637135
:1051B000914201DB2071607170BD206070BD000004
:1051C00070B5194C4FF4FA7305222068C08AC10BE0
:1051D0001648FFF7C3FF1548154A6838154B90F875
:1051E0006C5000201449042D08D2DFE805F00702B6
:1051F0000814216811F8390F401C087070BD12881E
:10520000012AFBD11A88032AF8D10C4A9070012296
:105210000A81088070BD1288012AFBD11A88032AEE
:10522000F8D1088170BD0000E8000020981500202A
:10523000740100207601002024170020B004002013
:1052400070B5254890ED070AB5EEC00AF1EE10FAE8
:1052500001DCB1EE400A224C10EE101A1F4A002564
:105260002068914204DA90F8371009B180F837507D
:10527000C08A4FF4FA73C0F3403105221948FFF792
:105280006DFF1848583890F85C0002281BD2DFE800
:1052900000F01A01206880F8305080F8315090F802
:1052A000371089B15FF0000180F837100E4869B1FE
:1052B00090ED000ADFED0D0A0D4930EE600A80ED39
:1052C000000A0120C87070BD0121EDE7094991ED88
:1052D000000A80ED000A70BD0C0B00200000A04009
:1052E000E8000020881500208C16002000003443C0
:1052F000B00400201400002010B5224CA4F1780363
:105300002068807DC00703D093ED010A012102E0EF
:1053100093ED020A00211B48543801F009FC206873
:10532000807D800703D593ED010A012102E093ED12
:10533000020A00211348503801F0FAFB2068807DF2
:10534000400703D593ED010A012102E093ED020A23
:1053500000210C484C3801F0EBFB2068807D0007F1
:1053600003D593ED010A012102E093ED020A002129
:105370000448483801F0DCFB02F018FDBDE810409D
:10538000FBF706BBE800002070B5274890ED070A40
:10539000B5EEC00AF1EE10FA01DCB1EE400A244C81
:1053A00010EE101A214A00252068914204DA90F884
:1053B000311009B180F83150807D4FF4FA73C0F399
:1053C000C01105221B48FFF7C9FE1A481A492838A0
:1053D00090F82C00022803D2DFE800F001034D8191
:1053E00070BD206880F8305090F83120A2B10022C2
:1053F00000F8312F8571114882B190ED000ADFED80
:10540000100A30EE600A80ED000A0E48008802287B
:10541000E6D10120488170BD0122E9E70A4991EDFA
:10542000000A80ED000A70BD0C0B00200000A040B7
:10543000E800002058150020B00400208C16002041
:105440000000B442760100201400002010B5124C78
:105450004FF4FA7305222068C08AC0F340210F4838
:10546000FFF77CFE0D48383890F83C00032808D23E
:10547000DFE800F007020800216811F8330F401C34
:10548000087010BD064801880029FAD10121018069
:1054900004490020088010BDE800002068150020A5
:1054A000700100207201002005484FF4FA730522B4
:1054B0000068C08AC0F380210248FFF74FBE000099
:1054C000E8000020701500200F4910B50A68002080
:1054D000D0810A6810820A6850820A6810750A68CA
:1054E00050750A68D0820A6850810A68908100224B
:1054F00002F12C030C68521CD2B2E054122AF7D3EA
:1055000001497839087010BDE80000202DE9F04706
:105510004148E62305220068017D4048FFF71EFE52
:105520003E483F4A8038012790F884303D4D3E4C3C
:10553000DFF8F8903E4E002040F6B831042B0ED232
:10554000DFE803F00211133030802070617801B978
:105550006880B5F9001021B1012900D1A770BDE81C
:10556000F087A070FBE72881F9E732480770A07840
:10557000B0B10128F3D1D9F80000B0F84F30B0F83D
:105580006C00181A1E28EADDB2F900008842E6DB3A
:1055900060780028E3D130880028E0D12770DEE76A
:1055A0002F80DCE780462070A078012824D1D9F82C
:1055B0000000B0F84F30B0F86C00181A1E281BDD40
:1055C000B2F90000DFF870A0884208DB9AF80020EA
:1055D0000A2A04D0627812B9328802B96F808842F0
:1055E0000ADBFBF771FA38B19AF800000A2803D1F8
:1055F000607808B9308868B1A6F80080D9F8000052
:10560000B0F84F10B0F86C00081A1E28A7DCA5F8F7
:105610000280A4E73780F1E7E8000020B015002001
:105620004418002024170020B00400206403002048
:10563000A201002095010020840200200B4810B533
:1056400000684FF4FA730522417D0948FFF786FD93
:105650000748883890F88C00022805D2DFE800F06F
:10566000040104490120087010BD0000E80000207A
:10567000B81500202805002070B5274890ED070ACE
:10568000B5EEC00AF1EE10FA01DCB1EE400A244C8E
:1056900010EE101A214A00252068914204DA90F891
:1056A000301009B180F83050807D4FF4FA73C0F3A8
:1056B000801105221B48FFF751FD1A481A4920386E
:1056C00090F82400022803D2DFE800F001030D81E6
:1056D00070BD206890F83020AAB1002200F8302F69
:1056E0004570C571114882B190ED000ADFED100AD6
:1056F00030EE200A80ED000A0E4800880228E7D12B
:105700000120088170BD0122E8E70B4991ED000AF4
:1057100080ED000A70BD00000C0B00200000A040CE
:10572000E800002050150020B00400208C16002056
:105730000000B4427601002014000020124810B589
:1057400000684FF4FA730522C08AC0F300210F48A5
:10575000FFF704FD0D48002130380D4A90F8343031
:105760000C48042B04D2DFE803F00302040B118180
:1057700010BD41780029FBD101214170118010BD7D
:105780004170518010BD0000E8000020601500202D
:1057900024170020B00400200E4810B500684FF414
:1057A000FA730522807DC0F300110B48FFF7D6FC89
:1057B000094800217838012290F87C300748022BF4
:1057C00004D2DFE803F001044171827110BD42711F
:1057D000817110BDE8000020A8150020B004002051
:1057E000114810B500684FF4FA730522C08AC0F35F
:1057F00080310E48FFF7B2FC0C48603890F8641016
:105800000B48032906D2DFE801F00205060009492A
:10581000097839B110BD81890029FBD1C189491CA2
:10582000C1810121818110BDE80000209015002078
:10583000B00400204D010020114810B500684FF45D
:10584000FA730522C08AC0F300310E48FFF786FCC8
:105850000C48503890F85400022810D2DFE800F0CD
:105860000F010A489FED080A094980ED000A00204F
:10587000087008490120088007490220087010BDFF
:10588000E800002080150020000000001800002023
:10589000950100202417002028050020114810B58C
:1058A00000684FF4FA730522C08AC0F3C0210E4885
:1058B000FFF754FC0C48483890F84C00022810D2EE
:1058C000DFE800F00F010A489FED080A094980ED62
:1058D000000A0020087008490120088007490320B9
:1058E000087010BDE80000207815002000000000BE
:1058F0001800002095010020241700202805002012
:1059000070B521484FF4FA7305220068807DC0F31A
:1059100040111E48FFF722FC1C481D4A703890F8C1
:1059200074100020032912D2DFE801F011021200E6
:1059300018490B89012B03D01288022A02D005E0F6
:10594000088103E0144B40F628529A83488070BDCA
:10595000032111801149124C088020790028F6D1CA
:10596000104DB5F9000000F57A7000EE100AB8EE9F
:10597000C00A00F019F8BDEEC00A10EE100A288027
:105980000120207170BD0000E8000020A01500205B
:1059900076010020241700208C16002070010020C2
:1059A000B00400206E010020DFED080AB5EEC00A49
:1059B000F1EE10FA02D230EE200A704710EE100A13
:1059C00003498842F9DB30EE600A704700F8FF4572
:1059D00000F8FF4530B51B4C192100252268A0F2C4
:1059E000012006281171626891700FD2DFE800F083
:1059F00003080F151C23144804F026FF20681FE03D
:105A00001148203004F020FF2068857030BD0E481A
:105A1000403004F019FF20680BE00B48603004F0C0
:105A200013FF2068C57030BD0748803004F00CFFBC
:105A30006068457030BD0448A03004F005FF606820
:105A4000057030BDF80300208417002030B5134CDA
:105A500019210025A268A0F500700138D1700CD082
:105A6000012811D0022816D0032805D10C4800BF08
:105A700005F05AF8A068857030BD0948403805F037
:105A800053F8A068457030BD0548603805F04CF803
:105A9000A068057030BD02482038E9E7F80300200F
:105AA000A418002070B50546FFF776FA0F4C207851
:105AB0004006000EFFF740FAFFF7B0FA2846FFF75E
:105AC0003BFAFFF7ABFAFFF767FA2078012101EB09
:105AD0004000C0B2FFF730FAFFF7A0FA0020FFF74E
